{
  "transactions": [
    {
      "hash": null,
      "transactionType": "CALL",
      "contractName": null,
      "contractAddress": "0xcb7b5a59e49aace208846cf8873e2013c8bed8b0",
      "function": "modifyLiquidity((address,address,uint24,int24,address),(int24,int24,int256,bytes32),bytes)",
      "arguments": [
        "(0x0000000000000000000000000000000000000000, 0x18fA6c4f8000bA5910B132825aB4De4819209F1c, 3000, 60, 0xF5AeEd6f2be9BF5C36Ef53d3e2a81e92468f40CC)",
        "(-887220, 887220, -20000000000000000, 0x0000000000000000000000000000000000000000000000000000000000000000)",
        "0x"
      ],
      "transaction": {
        "from": "0x3d01c7344ae6b1ef7a512922a295a9457d0eba91",
        "to": "0xcb7b5a59e49aace208846cf8873e2013c8bed8b0",
        "gas": "0x2b963",
        "value": "0x0",
        "input": "0x5a6bcfda000000000000000000000000000000000000000000000000000000000000000000000000000000000000000018fa6c4f8000ba5910b132825ab4de4819209f1c0000000000000000000000000000000000000000000000000000000000000bb8000000000000000000000000000000000000000000000000000000000000003c000000000000000000000000f5aeed6f2be9bf5c36ef53d3e2a81e92468f40ccfffffffffffffffffffffffffffffffffffffffffffffffffffffffffff2764c00000000000000000000000000000000000000000000000000000000000d89b4ffffffffffffffffffffffffffffffffffffffffffffffffffb8f21b207e0000000000000000000000000000000000000000000000000000000000000000000000000000000000000000000000000000000000000000000000000000000001400000000000000000000000000000000000000000000000000000000000000000",
        "nonce": "0x1b",
        "chainId": "0x1237"
      },
      "additionalContracts": [],
      "isFixedGasLimit": false
    },
    {
      "hash": null,
      "transactionType": "CREATE",
      "contractName": "LpLocker",
      "contractAddress": "0x18438c5163bd5cf85547ba56fac261ff3a2af659",
      "function": null,
      "arguments": [
        "0x8366a39CC670B4001A1121B8F6A443A643e40951"
      ],
      "transaction": {
        "from": "0x3d01c7344ae6b1ef7a512922a295a9457d0eba91",
        "gas": "0xe844f",
        "value": "0x0",
        "input": "0x60a034608557601f610c7238819003918201601f19168301916001600160401b03831184841017608957808492602094604052833981010312608557516001600160a01b03811681036085576080525f80546001600160a01b03191633179055604051610bd4908161009e823960805181818161017c015281816102a201526109610152f35b5f80fd5b634e487b7160e01b5f52604160045260245ffdfe608080604052600436101561001c575b50361561001a575f80fd5b005b5f905f3560e01c9081634fb2e45d14610a18575080637b026da31461084f5780638da5cb5b1461082857806391dd734614610250578063d7cc3d35146101ab578063dc4c90d3146101665763e5711e8b0361000f57346101635760603660031901126101635761008a610a8d565b610092610aa3565b82546001600160a01b031633036101545760405163a9059cbb60e01b81526001600160a01b039182166004820152604480356024830152909260209284929183918791165af190811561014957829161011a575b50156100ef5780f35b60405162461bcd60e51b8152602060048201526003602482015262746f6b60e81b6044820152606490fd5b61013c915060203d602011610142575b6101348183610b05565b810190610b86565b5f6100e6565b503d61012a565b6040513d84823e3d90fd5b6330cd747160e01b8352600483fd5b80fd5b50346101635780600319360112610163576040517f00000000000000000000000000000000000000000000000000000000000000006001600160a01b03168152602090f35b5034610163576040366003190112610163576101c5610a8d565b81546001600160a01b03163303610241578180808093602435905af13d1561023c573d6101f181610b27565b906101ff6040519283610b05565b81528260203d92013e5b156102115780f35b60405162461bcd60e51b81526020600482015260036024820152620cae8d60eb1b6044820152606490fd5b610209565b6330cd747160e01b8252600482fd5b50346107ca5760203660031901126107ca5760043567ffffffffffffffff81116107ca57366023820112156107ca57806004013567ffffffffffffffff81116107ca578101903660248301116107ca577f00000000000000000000000000000000000000000000000000000000000000006001600160a01b031691338390036108195781900360248101919061012081126107ca5760a0136107ca576040519060a0820182811067ffffffffffffffff8211176108055760405261031660248201610ab9565b825261032460448201610ab9565b906020830191825260648101359362ffffff851685036107ca576040840194855261035160848301610af7565b9060608501918252608061036760a48501610ab9565b8682019081529160c31901126107ca576040516080810181811067ffffffffffffffff821117610805576040526103a060c48501610af7565b81526103ae60e48501610af7565b91602082019283526040820193610104860135855261012460608401960135865262ffffff60405199632d35e7ed60e11b8b5260018060a01b038a511660048c015260018060a01b0389511660248c0152511660448a01525160020b606489015260018060a01b0390511660848801525160020b60a48701525160020b60c48601525160e4850152516101048401526101406101248401525f610144840152604083610164815f885af19182156107bf5785935f936107ce575b508260801d9081600f0b5f81125f1461072e57505060206001600160801b03610492600493610b43565b1660405192838092630476982d60e21b8252895af180156106655761070f575b505b81600f0b918383125f14610674575080516001600160a01b0316843b156106705760405190632961046560e21b82526004820152838160248183895af190811561066557849161064c575b505051602091610557916001600160a01b0316906001600160801b039061052590610b43565b60405163a9059cbb60e01b81526001600160a01b03881660048201529116602482015293849283919082906044820190565b03925af1908115610641578391610622575b50156105f75760208291600460405180958193630476982d60e21b83525af19182156105ea576105b7926105bb575b505b604051906105a9602083610b05565b815260405191829182610acd565b0390f35b6105dc9060203d6020116105e3575b6105d48183610b05565b810190610b77565b505f610598565b503d6105ca565b50604051903d90823e3d90fd5b606460405162461bcd60e51b81526020600482015260046024820152637061793160e01b6044820152fd5b61063b915060203d602011610142576101348183610b05565b5f610569565b6040513d85823e3d90fd5b8161065691610b05565b61066157825f6104ff565b8280fd5b6040513d86823e3d90fd5b8380fd5b92909113610689575b5050506105b79061059a565b5183546001600160a01b039182169385939290911691813b1561067057604051630b0d9c0960e01b81526001600160a01b0395861660048201529290941660248301526001600160801b039093166044820152918290606490829084905af18015610149576106fa575b808061067d565b610705828092610b05565b610163575f6106f3565b6107279060203d6020116105e3576105d48183610b05565b505f6104b2565b5f1261073c575b50506104b4565b515f5493945091926001600160a01b039081169216853b156107ca57604051630b0d9c0960e01b81526001600160a01b039182166004820152921660248301526001600160801b031660448201525f8160648183885af180156107bf576107a8575b9081859392610735565b6107b6919294505f90610b05565b5f92905f61079e565b6040513d5f823e3d90fd5b5f80fd5b935091506040833d6040116107fd575b816107eb60409383610b05565b810103126107ca57849251915f610468565b3d91506107de565b634e487b7160e01b5f52604160045260245ffd5b63570c108560e11b5f5260045ffd5b346107ca575f3660031901126107ca575f546040516001600160a01b039091168152602090f35b366003190161012081126107ca5760a0136107ca5760803660a31901126107ca575f546001600160a01b03163303610a09576040516001600160a01b03610894610a8d565b1660208201526001600160a01b036108aa610aa3565b16604082015260443562ffffff81168091036107ca5760608201526064358060020b8091036107ca5760808201526084356001600160a01b038116908190036107ca5760a082015260a4358060020b8091036107ca5760c082015260c4358060020b8091036107ca57815f9160e061095c94015260e43561010082015261010435610120820152610120815261094261014082610b05565b604051809381926348c8949160e01b835260048301610acd565b0381837f00000000000000000000000000000000000000000000000000000000000000006001600160a01b03165af180156107bf5761099757005b3d805f833e6109a68183610b05565b8101906020818303126107ca5780519067ffffffffffffffff82116107ca570181601f820112156107ca5780516109dc81610b27565b926109ea6040519485610b05565b818452602082840101116107ca575f928160208094018483015e010152005b6330cd747160e01b5f5260045ffd5b346107ca5760203660031901126107ca57610a31610a8d565b5f54906001600160a01b0382163303610a09576001600160a01b0316918215610a6457506001600160a01b031916175f55005b60649062461bcd60e51b81526020600482015260046024820152637a65726f60e01b6044820152fd5b600435906001600160a01b03821682036107ca57565b602435906001600160a01b03821682036107ca57565b35906001600160a01b03821682036107ca57565b602060409281835280519182918282860152018484015e5f828201840152601f01601f1916010190565b35908160020b82036107ca57565b90601f8019910116810190811067ffffffffffffffff82111761080557604052565b67ffffffffffffffff811161080557601f01601f191660200190565b600f0b6f7fffffffffffffffffffffffffffffff198114610b63575f0390565b634e487b7160e01b5f52601160045260245ffd5b908160209103126107ca575190565b908160209103126107ca575180151581036107ca579056fea264697066735822122045d9e27929091ac9ac1760c231ceeafb7c2114f87464e04a66072eaa599f093a64736f6c634300081a00330000000000000000000000008366a39cc670b4001a1121b8f6a443a643e40951",
        "nonce": "0x1c",
        "chainId": "0x1237"
      },
      "additionalContracts": [],
      "isFixedGasLimit": false
    },
    {
      "hash": null,
      "transactionType": "CALL",
      "contractName": null,
      "contractAddress": "0x18fa6c4f8000ba5910b132825ab4de4819209f1c",
      "function": "excludeFromDividends(address)",
      "arguments": [
        "0x18438C5163bD5cF85547bA56fAc261fF3a2af659"
      ],
      "transaction": {
        "from": "0x3d01c7344ae6b1ef7a512922a295a9457d0eba91",
        "to": "0x18fa6c4f8000ba5910b132825ab4de4819209f1c",
        "gas": "0x10c08",
        "value": "0x0",
        "input": "0x31e79db000000000000000000000000018438c5163bd5cf85547ba56fac261ff3a2af659",
        "nonce": "0x1d",
        "chainId": "0x1237"
      },
      "additionalContracts": [],
      "isFixedGasLimit": false
    },
    {
      "hash": null,
      "transactionType": "CALL",
      "contractName": null,
      "contractAddress": "0x18fa6c4f8000ba5910b132825ab4de4819209f1c",
      "function": "transfer(address,uint256)",
      "arguments": [
        "0x18438C5163bD5cF85547bA56fAc261fF3a2af659",
        "503000001000000000000000000"
      ],
      "transaction": {
        "from": "0x3d01c7344ae6b1ef7a512922a295a9457d0eba91",
        "to": "0x18fa6c4f8000ba5910b132825ab4de4819209f1c",
        "gas": "0x1a284",
        "value": "0x0",
        "input": "0xa9059cbb00000000000000000000000018438c5163bd5cf85547ba56fac261ff3a2af659000000000000000000000000000000000000000001a01264b1355d9afe640000",
        "nonce": "0x1e",
        "chainId": "0x1237"
      },
      "additionalContracts": [],
      "isFixedGasLimit": false
    },
    {
      "hash": null,
      "transactionType": "CALL",
      "contractName": null,
      "contractAddress": "0x8366a39cc670b4001a1121b8f6a443a643e40951",
      "function": "initialize((address,address,uint24,int24,address),uint160)",
      "arguments": [
        "(0x0000000000000000000000000000000000000000, 0x18fA6c4f8000bA5910B132825aB4De4819209F1c, 10000, 200, 0xF5AeEd6f2be9BF5C36Ef53d3e2a81e92468f40CC)",
        "792281625142643375935439503360000"
      ],
      "transaction": {
        "from": "0x3d01c7344ae6b1ef7a512922a295a9457d0eba91",
        "to": "0x8366a39cc670b4001a1121b8f6a443a643e40951",
        "gas": "0x1281e",
        "value": "0x0",
        "input": "0x6276cbbe000000000000000000000000000000000000000000000000000000000000000000000000000000000000000018fa6c4f8000ba5910b132825ab4de4819209f1c000000000000000000000000000000000000000000000000000000000000271000000000000000000000000000000000000000000000000000000000000000c8000000000000000000000000f5aeed6f2be9bf5c36ef53d3e2a81e92468f40cc0000000000000000000000000000000000002710000000000000000000000000",
        "nonce": "0x1f",
        "chainId": "0x1237"
      },
      "additionalContracts": [],
      "isFixedGasLimit": false
    },
    {
      "hash": null,
      "transactionType": "CALL",
      "contractName": "LpLocker",
      "contractAddress": "0x18438c5163bd5cf85547ba56fac261ff3a2af659",
      "function": "modify((address,address,uint24,int24,address),(int24,int24,int256,bytes32))",
      "arguments": [
        "(0x0000000000000000000000000000000000000000, 0x18fA6c4f8000bA5910B132825aB4De4819209F1c, 10000, 200, 0xF5AeEd6f2be9BF5C36Ef53d3e2a81e92468f40CC)",
        "(-887200, 887200, 300000000000000000000, 0x0000000000000000000000000000000000000000000000000000000000000000)"
      ],
      "transaction": {
        "from": "0x3d01c7344ae6b1ef7a512922a295a9457d0eba91",
        "to": "0x18438c5163bd5cf85547ba56fac261ff3a2af659",
        "gas": "0x5086e",
        "value": "0x6fe915466cc000",
        "input": "0x7b026da3000000000000000000000000000000000000000000000000000000000000000000000000000000000000000018fa6c4f8000ba5910b132825ab4de4819209f1c000000000000000000000000000000000000000000000000000000000000271000000000000000000000000000000000000000000000000000000000000000c8000000000000000000000000f5aeed6f2be9bf5c36ef53d3e2a81e92468f40ccfffffffffffffffffffffffffffffffffffffffffffffffffffffffffff2766000000000000000000000000000000000000000000000000000000000000d89a000000000000000000000000000000000000000000000001043561a88293000000000000000000000000000000000000000000000000000000000000000000000",
        "nonce": "0x20",
        "chainId": "0x1237"
      },
      "additionalContracts": [],
      "isFixedGasLimit": false
    },
    {
      "hash": null,
      "transactionType": "CALL",
      "contractName": "LpLocker",
      "contractAddress": "0x18438c5163bd5cf85547ba56fac261ff3a2af659",
      "function": "modify((address,address,uint24,int24,address),(int24,int24,int256,bytes32))",
      "arguments": [
        "(0x0000000000000000000000000000000000000000, 0x18fA6c4f8000bA5910B132825aB4De4819209F1c, 10000, 200, 0xF5AeEd6f2be9BF5C36Ef53d3e2a81e92468f40CC)",
        "(-887200, 184000, 50542943776905829095170, 0x0000000000000000000000000000000000000000000000000000000000000000)"
      ],
      "transaction": {
        "from": "0x3d01c7344ae6b1ef7a512922a295a9457d0eba91",
        "to": "0x18438c5163bd5cf85547ba56fac261ff3a2af659",
        "gas": "0x3b8a4",
        "value": "0x0",
        "input": "0x7b026da3000000000000000000000000000000000000000000000000000000000000000000000000000000000000000018fa6c4f8000ba5910b132825ab4de4819209f1c000000000000000000000000000000000000000000000000000000000000271000000000000000000000000000000000000000000000000000000000000000c8000000000000000000000000f5aeed6f2be9bf5c36ef53d3e2a81e92468f40ccfffffffffffffffffffffffffffffffffffffffffffffffffffffffffff27660000000000000000000000000000000000000000000000000000000000002cec0000000000000000000000000000000000000000000000ab3f03fb91a542117020000000000000000000000000000000000000000000000000000000000000000",
        "nonce": "0x21",
        "chainId": "0x1237"
      },
      "additionalContracts": [],
      "isFixedGasLimit": false
    },
    {
      "hash": null,
      "transactionType": "CALL",
      "contractName": null,
      "contractAddress": "0x91ef9b09fa009d422b1d51f6a7a463b439ade8ce",
      "function": "setTtpPoolKey((address,address,uint24,int24,address))",
      "arguments": [
        "(0x0000000000000000000000000000000000000000, 0x18fA6c4f8000bA5910B132825aB4De4819209F1c, 10000, 200, 0xF5AeEd6f2be9BF5C36Ef53d3e2a81e92468f40CC)"
      ],
      "transaction": {
        "from": "0x3d01c7344ae6b1ef7a512922a295a9457d0eba91",
        "to": "0x91ef9b09fa009d422b1d51f6a7a463b439ade8ce",
        "gas": "0xcb36",
        "value": "0x0",
        "input": "0xe943513a000000000000000000000000000000000000000000000000000000000000000000000000000000000000000018fa6c4f8000ba5910b132825ab4de4819209f1c000000000000000000000000000000000000000000000000000000000000271000000000000000000000000000000000000000000000000000000000000000c8000000000000000000000000f5aeed6f2be9bf5c36ef53d3e2a81e92468f40cc",
        "nonce": "0x22",
        "chainId": "0x1237"
      },
      "additionalContracts": [],
      "isFixedGasLimit": false
    },
    {
      "hash": null,
      "transactionType": "CALL",
      "contractName": null,
      "contractAddress": "0x779ae42e06c73174983362d62aae191d52ae08b2",
      "function": "setKeys((address,address,uint24,int24,address),(address,address,uint24,int24,address))",
      "arguments": [
        "(0x0000000000000000000000000000000000000000, 0x5fc5360D0400a0Fd4f2af552ADD042D716F1d168, 500, 10, 0x0000000000000000000000000000000000000000)",
        "(0x0000000000000000000000000000000000000000, 0x18fA6c4f8000bA5910B132825aB4De4819209F1c, 10000, 200, 0xF5AeEd6f2be9BF5C36Ef53d3e2a81e92468f40CC)"
      ],
      "transaction": {
        "from": "0x3d01c7344ae6b1ef7a512922a295a9457d0eba91",
        "to": "0x779ae42e06c73174983362d62aae191d52ae08b2",
        "gas": "0xe6ba",
        "value": "0x0",
        "input": "0xcf714f4800000000000000000000000000000000000000000000000000000000000000000000000000000000000000005fc5360d0400a0fd4f2af552add042d716f1d16800000000000000000000000000000000000000000000000000000000000001f4000000000000000000000000000000000000000000000000000000000000000a0000000000000000000000000000000000000000000000000000000000000000000000000000000000000000000000000000000000000000000000000000000000000000000000000000000018fa6c4f8000ba5910b132825ab4de4819209f1c000000000000000000000000000000000000000000000000000000000000271000000000000000000000000000000000000000000000000000000000000000c8000000000000000000000000f5aeed6f2be9bf5c36ef53d3e2a81e92468f40cc",
        "nonce": "0x23",
        "chainId": "0x1237"
      },
      "additionalContracts": [],
      "isFixedGasLimit": false
    }
  ],
  "receipts": [],
  "libraries": [],
  "pending": [],
  "returns": {},
  "timestamp": 1784415584917,
  "chain": 4663,
  "commit": null
}