{
  "transactions": [
    {
      "hash": "0x172443babb903dee0a7879839d27ec227e02b7c3e0a042c4a9d27704ce5aff73",
      "transactionType": "CREATE",
      "contractName": "MockStockToken",
      "contractAddress": "0x119e0a8c499de27a2fc2a341af229802d2548d19",
      "function": null,
      "arguments": [
        "Global Dollar",
        "USDG"
      ],
      "transaction": {
        "from": "0x71b3cc4f406f345c27b150036fe5e5be03fc9e0b",
        "gas": "0xbc5c1",
        "value": "0x0",
        "input": "0x60806040523461032957610b7e803803806100198161032d565b9283398101906040818303126103295780516001600160401b0381116103295782610045918301610352565b60208201519092906001600160401b038111610329576100659201610352565b670de0b6b3a764000060045581516001600160401b03811161023f575f54600181811c9116801561031f575b602082101461022157601f81116102bd575b50602092601f821160011461025e57928192935f92610253575b50508160011b915f199060031b1c1916175f555b80516001600160401b03811161023f57600154600181811c91168015610235575b602082101461022157601f81116101be575b50602091601f821160011461015e579181925f92610153575b50508160011b915f199060031b1c1916176001555b600280546001600160a01b031916331790556040516107da90816103a48239f35b015190505f8061011d565b601f1982169260015f52805f20915f5b8581106101a65750836001951061018e575b505050811b01600155610132565b01515f1960f88460031b161c191690555f8080610180565b9192602060018192868501518155019401920161016e565b60015f527fb10e2d527612073b26eecdfd717e6a320cf44b4afac2b0732d9fcbe2b7fa0cf6601f830160051c81019160208410610217575b601f0160051c01905b81811061020c5750610104565b5f81556001016101ff565b90915081906101f6565b634e487b7160e01b5f52602260045260245ffd5b90607f16906100f2565b634e487b7160e01b5f52604160045260245ffd5b015190505f806100bd565b601f198216935f8052805f20915f5b8681106102a5575083600195961061028d575b505050811b015f556100d1565b01515f1960f88460031b161c191690555f8080610280565b9192602060018192868501518155019401920161026d565b5f80527f290decd9548b62a8d60345a988386fc84ba6bc95484008f6362f93160ef3e563601f830160051c81019160208410610315575b601f0160051c01905b81811061030a57506100a3565b5f81556001016102fd565b90915081906102f4565b90607f1690610091565b5f80fd5b6040519190601f01601f191682016001600160401b0381118382101761023f57604052565b81601f82011215610329578051906001600160401b03821161023f57610381601f8301601f191660200161032d565b928284526020838301011161032957815f9260208093018386015e830101529056fe60806040526004361015610011575f80fd5b5f3560e01c806306fdde03146105b6578063095ea7b31461053d57806318160ddd1461052057806323b872dd14610474578063313ce5671461045957806340c10f19146103cb578063437a99581461038657806370a082311461034e5780638da5cb5b1461032657806395d89b41146102085780639bea6429146101d5578063a60bf13d146101b8578063a9059cbb14610186578063c4ab3bc1146101125763dd62ed3e146100be575f80fd5b3461010e57604036600319011261010e576100d76106b2565b6100df6106c8565b6001600160a01b039182165f908152600660209081526040808320949093168252928352819020549051908152f35b5f80fd5b3461010e57602036600319011261010e57600254600435906001600160a01b03163303610177577f2205df4534432b2f60654a3fdb48737ffdaf3e9edb1a498bd985bc026b15b0556060600454604051908152836020820152426040820152a1600455005b6330cd747160e01b5f5260045ffd5b3461010e57604036600319011261010e5760206101ae6101a46106b2565b602435903361071f565b6040519015158152f35b3461010e575f36600319011261010e576020600454604051908152f35b3461010e575f36600319011261010e576020670de0b6b3a76400006101ff6003546004549061070c565b04604051908152f35b3461010e575f36600319011261010e576040515f6001548060011c9060018116801561031c575b602083108114610308578285529081156102ec5750600114610296575b50819003601f01601f191681019067ffffffffffffffff821181831017610282576040829052819061027e9082610688565b0390f35b634e487b7160e01b5f52604160045260245ffd5b60015f9081529091507fb10e2d527612073b26eecdfd717e6a320cf44b4afac2b0732d9fcbe2b7fa0cf65b8282106102d65750602091508201018261024c565b60018160209254838588010152019101906102c1565b90506020925060ff191682840152151560051b8201018261024c565b634e487b7160e01b5f52602260045260245ffd5b91607f169161022f565b3461010e575f36600319011261010e576002546040516001600160a01b039091168152602090f35b3461010e57602036600319011261010e576001600160a01b0361036f6106b2565b165f526005602052602060405f2054604051908152f35b3461010e57602036600319011261010e576001600160a01b036103a76106b2565b165f5260056020526020670de0b6b3a76400006101ff60405f20546004549061070c565b3461010e57604036600319011261010e576103e46106b2565b60025460243591906001600160a01b03163303610177577fddf252ad1be2c89b69c2b068fc378daa952ba7f163c4a11628f55a4df523b3ef60205f9261042c856003546106ff565b60035560018060a01b031693848452600582526040842061044e8282546106ff565b9055604051908152a3005b3461010e575f36600319011261010e57602060405160128152f35b3461010e57606036600319011261010e5761048d6106b2565b6104956106c8565b6001600160a01b0382165f818152600660209081526040808320338452909152902054604435939190600181016104d4575b60206101ae86868661071f565b92909391828410610511576020946104ef846101ae966106de565b5f918252600687526040808320338452885290912055919390925082906104c7565b631dc930eb60e01b5f5260045ffd5b3461010e575f36600319011261010e576020600354604051908152f35b3461010e57604036600319011261010e576105566106b2565b335f8181526006602090815260408083206001600160a01b03909516808452948252918290206024359081905591519182527f8c5be1e5ebec7d5bd14f71427d1e84f3dd0314c0f7b2291e5b200ac8c7c3b92591a3602060405160018152f35b3461010e575f36600319011261010e576040515f80548060011c9060018116801561067e575b602083108114610308578285529081156102ec575060011461062a5750819003601f01601f191681019067ffffffffffffffff821181831017610282576040829052819061027e9082610688565b5f8080529091507f290decd9548b62a8d60345a988386fc84ba6bc95484008f6362f93160ef3e5635b8282106106685750602091508201018261024c565b6001816020925483858801015201910190610653565b91607f16916105dc565b602060409281835280519182918282860152018484015e5f828201840152601f01601f1916010190565b600435906001600160a01b038216820361010e57565b602435906001600160a01b038216820361010e57565b919082039182116106eb57565b634e487b7160e01b5f52601160045260245ffd5b919082018092116106eb57565b818102929181159184041417156106eb57565b60018060a01b031690815f5260056020528260405f2054106105115760207fddf252ad1be2c89b69c2b068fc378daa952ba7f163c4a11628f55a4df523b3ef91835f526005825260405f206107758682546106de565b905560018060a01b031693845f526005825260405f206107968282546106ff565b9055604051908152a360019056fea26469706673582212203b65d1cd92a2f4fb800be2c6efab93ba640b2d319fdafd51226ee76b94e72ddf64736f6c634300081a003300000000000000000000000000000000000000000000000000000000000000400000000000000000000000000000000000000000000000000000000000000080000000000000000000000000000000000000000000000000000000000000000d476c6f62616c20446f6c6c61720000000000000000000000000000000000000000000000000000000000000000000000000000000000000000000000000000045553444700000000000000000000000000000000000000000000000000000000",
        "nonce": "0xbb",
        "chainId": "0xb626"
      },
      "additionalContracts": [],
      "isFixedGasLimit": false
    },
    {
      "hash": "0x1287eebb58f2ed28ae2fb467c30af462fca98d13c6656c2104ca491dee4d783a",
      "transactionType": "CREATE",
      "contractName": "MockFeedV3",
      "contractAddress": "0x6bb2e06756ac4d556d7d853565b7a23289fe1ba5",
      "function": null,
      "arguments": [
        "100000000"
      ],
      "transaction": {
        "from": "0x71b3cc4f406f345c27b150036fe5e5be03fc9e0b",
        "gas": "0x44e8e",
        "value": "0x0",
        "input": "0x608034606657601f61023938819003918201601f19168301916001600160401b03831184841017606a57808492602094604052833981010312606657515f55426001908155600280546001600160501b03191690911790556040516101ba908161007f8239f35b5f80fd5b634e487b7160e01b5f52604160045260245ffdfe6080806040526004361015610012575f80fd5b5f3560e01c908163313ce5671461016b575080637519ab501461014e57806385bb7d69146101325780638cd221c91461010c578063e5c19b2d146100a45763feaf968c1461005e575f80fd5b346100a0575f3660031901126100a05760a06001600160501b03600254165f549060015460405192828452602084015280604084015260608301526080820152f35b5f80fd5b346100a05760203660031901126100a0576004355f554260015560025460016001600160501b038216016001600160501b0381116100f8576001600160501b0316906001600160501b031916176002555f80f35b634e487b7160e01b5f52601160045260245ffd5b346100a0575f3660031901126100a05760206001600160501b0360025416604051908152f35b346100a0575f3660031901126100a05760205f54604051908152f35b346100a0575f3660031901126100a0576020600154604051908152f35b346100a0575f3660031901126100a05780600860209252f3fea2646970667358221220c7d9193c3ac18ddb09f7795ed8989d9658ba5c75258c0860b0cd114c1b0eb7fe64736f6c634300081a00330000000000000000000000000000000000000000000000000000000005f5e100",
        "nonce": "0xbc",
        "chainId": "0xb626"
      },
      "additionalContracts": [],
      "isFixedGasLimit": false
    },
    {
      "hash": "0xbb37861d1c25c18502327a250ba45332e173d6d58215014f5520b513281ae9e8",
      "transactionType": "CREATE",
      "contractName": "GoodAsGold",
      "contractAddress": "0xd8ecaee6dc47ce14232f9eb9468009495a3f0e32",
      "function": null,
      "arguments": [
        "0x119E0A8c499dE27a2fC2a341aF229802D2548d19",
        "1000000000000000000000000000"
      ],
      "transaction": {
        "from": "0x71b3cc4f406f345c27b150036fe5e5be03fc9e0b",
        "gas": "0x127b24",
        "value": "0x0",
        "input": "0x60a03461010957601f610fef38819003918201601f19168301916001600160401b0383118484101761010d5780849260409485528339810103126101095780516001600160a01b03811691908290036101095760200151608091909152600a80546001600160a01b031916331790558061010457506b033b2e3c9fd0803ce80000005b61008d815f54610121565b5f55335f52600160205260405f206100a6828254610121565b90556040519081525f7fddf252ad1be2c89b69c2b068fc378daa952ba7f163c4a11628f55a4df523b3ef60203393a36100de33610162565b604051610d8a90816102658239608051818181610178015281816105e40152610aee0152f35b610082565b5f80fd5b634e487b7160e01b5f52604160045260245ffd5b9190820180921161012e57565b634e487b7160e01b5f52601160045260245ffd5b9190820391821161012e57565b8181029291811591840414171561012e57565b6001600160a01b03165f8181526009602052604090205460ff1615610251575f905b805f52600660205260405f205480831461024c5782818111156101fc57906101ab91610142565b6101b78160035461014f565b90825f52600760205260405f209182545f828203921281831281169183139015161761012e576101ea9255600554610121565b6005555b5f52600660205260405f2055565b61020591610142565b6102118160035461014f565b90825f52600760205260405f209182545f828201928312911290801582169115161761012e576102449255600554610142565b6005556101ee565b505050565b805f52600160205260405f20549061018456fe60806040526004361015610011575f80fd5b5f3560e01c806306fdde031461092e578063095ea7b3146108b557806318160ddd1461089957806323b872dd1461080f57806327ce0147146107ec578063313ce567146107d157806331e79db0146107545780633243c791146105875780633a7960e01461056a5780633a98ef391461054d5780634e71d92d146105335780634e7b827f146104f657806370a08231146104be57806375619ab51461047157806375829def1461041557806379cc67901461034a57806385a6b3ae1461032d57806395d89b41146102eb578063a8b9d240146102c0578063a9059cbb1461028f578063bfe1092814610267578063ce7c2ac21461022f578063dd62ed3e146101df578063de3aaf61146101a7578063f5b91b7b146101635763f851a44014610137575f80fd5b3461015f575f36600319011261015f57600a546040516001600160a01b039091168152602090f35b5f80fd5b3461015f575f36600319011261015f576040517f00000000000000000000000000000000000000000000000000000000000000006001600160a01b03168152602090f35b3461015f57602036600319011261015f576001600160a01b036101c86109d4565b165f526008602052602060405f2054604051908152f35b3461015f57604036600319011261015f576101f86109d4565b6102006109ea565b6001600160a01b039182165f908152600260209081526040808320949093168252928352819020549051908152f35b3461015f57602036600319011261015f576001600160a01b036102506109d4565b165f526006602052602060405f2054604051908152f35b3461015f575f36600319011261015f57600b546040516001600160a01b039091168152602090f35b3461015f57604036600319011261015f576102b56102ab6109d4565b6024359033610bde565b602060405160018152f35b3461015f57602036600319011261015f5760206102e36102de6109d4565b610baf565b604051908152f35b3461015f575f36600319011261015f5761032960405161030c604082610974565b60048152633139373160e01b6020820152604051918291826109aa565b0390f35b3461015f575f36600319011261015f576020600454604051908152f35b3461015f57604036600319011261015f576103ef6103666109d4565b6001600160a01b0381165f81815260026020908152604080832033845282528220549192917fddf252ad1be2c89b69c2b068fc378daa952ba7f163c4a11628f55a4df523b3ef91906024359081600182016103f1575b505083855260018252604085206103d4828254610a00565b90556103e1818654610a00565b8555604051908152a3610c60565b005b6103fa91610a00565b848652600283526040808720338852845286205587816103bc565b3461015f57602036600319011261015f5761042e6109d4565b600a54906001600160a01b0382163303610462576001600160a01b0316908115610462576001600160a01b03191617600a55005b637bfa4b9f60e01b5f5260045ffd5b3461015f57602036600319011261015f5761048a6109d4565b600a546001600160a01b0316330361046257600b80546001600160a01b0319166001600160a01b0392909216919091179055005b3461015f57602036600319011261015f576001600160a01b036104df6109d4565b165f526001602052602060405f2054604051908152f35b3461015f57602036600319011261015f576001600160a01b036105176109d4565b165f526009602052602060ff60405f2054166040519015158152f35b3461015f575f36600319011261015f5760206102e3610aa3565b3461015f575f36600319011261015f576020600554604051908152f35b3461015f575f36600319011261015f576020600354604051908152f35b3461015f57602036600319011261015f5760043560018060a01b03600b54163314158061073f575b6107305760055415610721576040516323b872dd60e01b8152336004820152306024820152604481018290526020816064815f7f00000000000000000000000000000000000000000000000000000000000000006001600160a01b03165af1908115610716575f916106e7575b50156106b657608081901b8115600160801b8383041417156106a257600554801561068e5761064e9104600354610a96565b60035561065d81600454610a96565b6004556040519081527fa493a9229478c3fcd73f66d2cdeb7f94fd0f341da924d1054236d7845411651160203392a2005b634e487b7160e01b5f52601260045260245ffd5b634e487b7160e01b5f52601160045260245ffd5b60405162461bcd60e51b815260206004820152600960248201526870756c6c207573646760b81b6044820152606490fd5b610709915060203d60201161070f575b6107018183610974565b810190610a7e565b8261061c565b503d6106f7565b6040513d5f823e3d90fd5b63b317087b60e01b5f5260045ffd5b63385296d560e01b5f5260045ffd5b50600a546001600160a01b03163314156105af565b3461015f57602036600319011261015f5761076d6109d4565b600a546001600160a01b03163303610462576001600160a01b0381165f818152600960205260409020805460ff19166001179055906107ab90610c60565b7fbc358c1a6bbec2cf1d21c2fb5a564b55d7828e32fb5da64adf3c5479264650105f80a2005b3461015f575f36600319011261015f57602060405160128152f35b3461015f57602036600319011261015f5760206102e361080a6109d4565b610a3b565b3461015f57606036600319011261015f576102b561082b6109d4565b6108336109ea565b6001600160a01b0382165f818152600260209081526040808320338452909152902054604435939190846001820161086e575b505050610bde565b61087791610a00565b5f91825260026020908152604080842033855290915290912055848084610866565b3461015f575f36600319011261015f5760205f54604051908152f35b3461015f57604036600319011261015f576108ce6109d4565b335f8181526002602090815260408083206001600160a01b03909516808452948252918290206024359081905591519182527f8c5be1e5ebec7d5bd14f71427d1e84f3dd0314c0f7b2291e5b200ac8c7c3b92591a3602060405160018152f35b3461015f575f36600319011261015f5761032960405161094f604082610974565b600c81526b11dbdbd908185cc811dbdb1960a21b6020820152604051918291826109aa565b90601f8019910116810190811067ffffffffffffffff82111761099657604052565b634e487b7160e01b5f52604160045260245ffd5b602060409281835280519182918282860152018484015e5f828201840152601f01601f1916010190565b600435906001600160a01b038216820361015f57565b602435906001600160a01b038216820361015f57565b919082039182116106a257565b818102929181159184041417156106a257565b9190915f83820193841291129080158216911516176106a257565b6003546001600160a01b039091165f81815260066020526040902054610a7892610a659190610a0d565b905f52600760205260405f205490610a20565b60801c90565b9081602091031261015f5751801515810361015f5790565b919082018092116106a257565b610aac33610baf565b8015610baa57335f52600860205260405f20610ac9828254610a96565b905560405163a9059cbb60e01b8152336004820152602481018290526020816044815f7f00000000000000000000000000000000000000000000000000000000000000006001600160a01b03165af1908115610716575f91610b8b575b5015610b5b576040518181527f5efa67896a23b651b741b525caacba039c00ca7853be3de8eb1f4269e8669c5660203392a290565b60405162461bcd60e51b8152602060048201526008602482015267706179207573646760c01b6044820152606490fd5b610ba4915060203d60201161070f576107018183610974565b5f610b26565b505f90565b610bdb90610bbc81610a3b565b6001600160a01b039091165f9081526008602052604090205490610a00565b90565b610c5990610c5e9360018060a01b038216805f52600160205260405f20610c06838254610a00565b90557fddf252ad1be2c89b69c2b068fc378daa952ba7f163c4a11628f55a4df523b3ef602060018060a01b03871693845f526001825260405f20610c4b828254610a96565b9055604051908152a3610c60565b610c60565b565b6001600160a01b03165f8181526009602052604090205460ff1615610d41575f905b805f52600660205260405f2054808314610d3c578281811115610cfa5790610ca991610a00565b610cb581600354610a0d565b90825f52600760205260405f209182545f82820392128183128116918313901516176106a257610ce89255600554610a96565b6005555b5f52600660205260405f2055565b610d0790610d3492610a00565b610d1381600354610a0d565b835f526007602052610d2a60405f20918254610a20565b9055600554610a00565b600555610cec565b505050565b805f52600160205260405f205490610c8256fea2646970667358221220143363144c3b2fa689d597232168f28d0cdc0a7f3b4d1932e198662db540a32164736f6c634300081a0033000000000000000000000000119e0a8c499de27a2fc2a341af229802d2548d190000000000000000000000000000000000000000033b2e3c9fd0803ce8000000",
        "nonce": "0xbd",
        "chainId": "0xb626"
      },
      "additionalContracts": [],
      "isFixedGasLimit": false
    },
    {
      "hash": "0x8167e6721244d7507e6efc3591496b53449001861a0821d786b4f7be1ab76ada",
      "transactionType": "CREATE",
      "contractName": "FeeVault",
      "contractAddress": "0xe4e7d677e23544e12a0100b29e146b9164c831a2",
      "function": null,
      "arguments": null,
      "transaction": {
        "from": "0x71b3cc4f406f345c27b150036fe5e5be03fc9e0b",
        "gas": "0x7d769",
        "value": "0x0",
        "input": "0x608080604052346026575f80546001600160a01b031916331790556105c6908161002b8239f35b5f80fdfe6080806040526004361015610057575b50361561001a575f80fd5b6100263460025461056f565b6002556040513481527f85177f287940f2f05425a4029951af0e047a7f9c4eaa9a6e6917bcd869f8669560203392a2005b5f3560e01c908163338b5dea146104535750806353edd8f714610374578063711bf9b2146102e757806376de0a4e146102af5780638da5cb5b14610288578063a9a18dda1461026b578063b91816111461022e578063f2fde38b1461019d5763fd4549ef146100c6575f61000f565b3461019957602036600319011261019957600435335f52600160205260ff60405f2054161561018a575f80808084335af13d15610185573d67ffffffffffffffff81116101715760405190610125601f8201601f191660200183610535565b81525f60203d92013e5b15610162576040519081527f95b0916497da37b1a8bbfb8c15e3a9da1183de56cbdc9b186f44abccd99b373460203392a2005b6312171d8360e31b5f5260045ffd5b634e487b7160e01b5f52604160045260245ffd5b61012f565b63ea8e4eb560e01b5f5260045ffd5b5f80fd5b34610199576020366003190112610199576101b661051f565b5f546001600160a01b038116913383900361021f576001600160a01b03169182156102105782907f8be0079c531659141344cd1fd0a4f28419497f9722a3daafe3b4186f6b6457e05f80a36001600160a01b031916175f55005b63d92e233d60e01b5f5260045ffd5b6330cd747160e01b5f5260045ffd5b34610199576020366003190112610199576001600160a01b0361024f61051f565b165f526001602052602060ff60405f2054166040519015158152f35b34610199575f366003190112610199576020600254604051908152f35b34610199575f366003190112610199575f546040516001600160a01b039091168152602090f35b34610199576020366003190112610199576001600160a01b036102d061051f565b165f526003602052602060405f2054604051908152f35b346101995760403660031901126101995761030061051f565b60243590811515809203610199575f546001600160a01b0316330361021f576001600160a01b03169081156102105760207f19fef6046150baa445c8f44d75e29317c0fa4c6341a6c8444b3ec4cc48d1e1ce91835f526001825260405f2060ff1981541660ff8316179055604051908152a2005b346101995760403660031901126101995761038d61051f565b60243590335f52600160205260ff60405f2054161561018a5760405163a9059cbb60e01b8152336004820152602481018390526001600160a01b0391909116906020816044815f865af1908115610448575f91610419575b5015610162576040519182527fec4a361bee85d722c77b1402063dc99d0874bb256897206e0aefe166f0fb716260203393a3005b61043b915060203d602011610441575b6104338183610535565b810190610557565b836103e5565b503d610429565b6040513d5f823e3d90fd5b346101995760403660031901126101995761046c61051f565b6323b872dd60e01b8252336004830152306024808401919091523560448301819052916001600160a01b03909116906020816064815f865af1908115610448575f91610500575b501561016257805f52600360205260405f206104d083825461056f565b90556040519182527fa83965f0e7c5e026e57c9ba2dd91e4ebcca352f2d514498c1e9ed23ba653860060203393a3005b610519915060203d602011610441576104338183610535565b836104b3565b600435906001600160a01b038216820361019957565b90601f8019910116810190811067ffffffffffffffff82111761017157604052565b90816020910312610199575180151581036101995790565b9190820180921161057c57565b634e487b7160e01b5f52601160045260245ffdfea264697066735822122088d9eae23aff748137671ea2fd37715b8ee91397644be8288008bcf6bbc1796364736f6c634300081a0033",
        "nonce": "0xbe",
        "chainId": "0xb626"
      },
      "additionalContracts": [],
      "isFixedGasLimit": false
    },
    {
      "hash": "0x0889a4f8924b00abff2b33ec4a1f3f0e4a6b90f59ee9ccdc5ba42d7df5ef5cc2",
      "transactionType": "CREATE2",
      "contractName": "TTPFeeHook",
      "contractAddress": "0xcf1bf1cec0d7732ae1bd9bff693c95ca16b000cc",
      "function": null,
      "arguments": [
        "0x552815eF68E6eb418A3d65D0AA1043d93204F612",
        "0xe4e7d677e23544e12A0100b29E146b9164c831A2",
        "400"
      ],
      "transaction": {
        "from": "0x71b3cc4f406f345c27b150036fe5e5be03fc9e0b",
        "to": "0x4e59b44847b379578588920ca78fbf26c0b4956c",
        "gas": "0xf1d55",
        "value": "0x0",
        "input": "0x00000000000000000000000000000000000000000000000000000000000022ac60e06040523461031757604051601f610f1838819003918201601f19168301916001600160401b0383118484101761031b57808492606094604052833981010312610317578051906001600160a01b0382168203610317576020810151906001600160a01b038216908183036103175760400151926080525f6101a061008361032f565b8281528260208201528260408201528260608201528260808201528260a08201528260c08201528260e0820152826101008201528261012082015282610140820152826101608201528261018082015201525f6101a06100e161032f565b8281528260208201528260408201528260608201528260808201528260a0820152600160c0820152600160e082015282610100820152826101208201526001610140820152600161016082015282610180820152015261200030161580159061030a575b80156102fd575b80156102f0575b80156102e3575b80156102d6575b80156102c6575b80156102b6575b80156102aa575b801561029e575b801561028e575b801561027e575b8015610272575b8015610266575b6102535715610244576101f482116102355760c05260a052604051610bc89081610350823960805181818160d101528181610157015281816101a9015281816103b40152818161041d0152818161049e01528181610577015281816105e6015281816108d00152610a78015260a05181818161063e015281816108a10152610a4a015260c0518181816104f00152818161091e0152610ac60152f35b63cd4e616760e01b5f5260045ffd5b63d92e233d60e01b5f5260045ffd5b630732d7b560e51b5f523060045260245ffd5b50600130161515610199565b50600230161515610192565b506004301615156001141561018b565b5060083016151560011415610184565b5060103016151561017d565b50602030161515610176565b506040301615156001141561016f565b5060803016151560011415610168565b5061010030161515610161565b506102003016151561015a565b5061040030161515610153565b506108003016151561014c565b5061100030161515610145565b5f80fd5b634e487b7160e01b5f52604160045260245ffd5b604051906101c082016001600160401b0381118382101761031b5760405256fe60806040526004361015610011575f80fd5b5f3560e01c806321d0ee70146105d357806324a9d85314610627578063259982e5146105d3578063575e24b41461051f57806361d027b3146104db5780636c2bbe7e1461040a5780636fe7e6eb146104605780639f063efc1461040a578063b47b2fb11461035c578063b6a8b0fa146100be578063c4e833ce146101f4578063d55be8c6146101d8578063dc4c90d314610194578063dc98354e146101265763e1b4af69146100be575f80fd5b34610122576100cc36610789565b5050507f00000000000000000000000000000000000000000000000000000000000000006001600160a01b03163303925061011391505057630a85dc2960e01b5f5260045ffd5b63570c108560e11b5f5260045ffd5b5f80fd5b346101225760e03660031901126101225761013f610661565b5060a036602319011261012257610154610773565b507f00000000000000000000000000000000000000000000000000000000000000006001600160a01b0316330361011357630a85dc2960e01b5f5260045ffd5b34610122575f366003190112610122576040517f00000000000000000000000000000000000000000000000000000000000000006001600160a01b03168152602090f35b34610122575f3660031901126101225760206040516101f48152f35b34610122575f366003190112610122575f6101a0604051610214816107e1565b8281528260208201528260408201528260608201528260808201528260a08201528260c08201528260e0820152826101008201528261012082015282610140820152826101608201528261018082015201526101c06020604051610277816107e1565b5f8152818101905f8252604081015f8152606082015f8152608083015f815260a084015f815260c085016001815260e0860190600182526101008701925f84526101208801945f8652610140890196600188526101608a019860018a526101a06101808c019b5f8d52019b5f8d526040519d8e915f835251151591015251151560408d015251151560608c015251151560808b015251151560a08a015251151560c089015251151560e08801525115156101008701525115156101208601525115156101408501525115156101608401525115156101808301525115156101a0820152f35b346101225761016036600319011261012257610376610661565b5060a03660231901126101225760603660c3190112610122576101443567ffffffffffffffff8111610122576103b0903690600401610677565b50507f00000000000000000000000000000000000000000000000000000000000000006001600160a01b031633036101135760406103f0610124356109ea565b82516001600160e01b03199092168252600f0b6020820152f35b346101225761041836610709565b5050507f00000000000000000000000000000000000000000000000000000000000000006001600160a01b0316330393506101139250505057630a85dc2960e01b5f5260045ffd5b34610122576101003660031901126101225761047a610661565b5060a03660231901126101225761048f610773565b5060e4358060020b03610122577f00000000000000000000000000000000000000000000000000000000000000006001600160a01b0316330361011357630a85dc2960e01b5f5260045ffd5b34610122575f366003190112610122576040517f00000000000000000000000000000000000000000000000000000000000000006001600160a01b03168152602090f35b346101225761014036600319011261012257610539610661565b5060a03660231901126101225760603660c3190112610122576101243567ffffffffffffffff811161012257610573903690600401610677565b50507f00000000000000000000000000000000000000000000000000000000000000006001600160a01b0316330361011357606062ffffff6105b361085b565b906040939293519363ffffffff60e01b1684526020840152166040820152f35b34610122576105e1366106a5565b5050507f00000000000000000000000000000000000000000000000000000000000000006001600160a01b031633039150610113905057630a85dc2960e01b5f5260045ffd5b34610122575f3660031901126101225760206040517f00000000000000000000000000000000000000000000000000000000000000008152f35b600435906001600160a01b038216820361012257565b9181601f840112156101225782359167ffffffffffffffff8311610122576020838186019501011161012257565b90610160600319830112610122576004356001600160a01b0381168103610122579160a060231982011261012257602491608060c3198301126101225760c491610144359067ffffffffffffffff82116101225761070591600401610677565b9091565b906101a0600319830112610122576004356001600160a01b0381168103610122579160a060231982011261012257602491608060c3198301126101225760c49161014435916101643591610184359067ffffffffffffffff82116101225761070591600401610677565b60c435906001600160a01b038216820361012257565b610120600319820112610122576004356001600160a01b0381168103610122579160a06023198301126101225760249160c4359160e43591610104359067ffffffffffffffff82116101225761070591600401610677565b6101c0810190811067ffffffffffffffff8211176107fe57604052565b634e487b7160e01b5f52604160045260245ffd5b90601f8019910116810190811067ffffffffffffffff8211176107fe57604052565b8181029291811591840414171561084757565b634e487b7160e01b5f52601160045260245ffd5b6024356001600160a01b0381168082036101225715905f918015906109d0575b6109bf5760e4355f8112156109b357600160ff1b8114610847576108c6612710915f035b7f000000000000000000000000000000000000000000000000000000000000000090610834565b049081156109a1577f00000000000000000000000000000000000000000000000000000000000000006001600160a01b0316803b1561012257604051630b0d9c0960e01b81526001600160a01b0392831660048201527f00000000000000000000000000000000000000000000000000000000000000009092166024830152604482018390525f908290606490829084905af180156109965761097f575b5061096e90610b71565b60801b916315d7892d60e21b929190565b61098c9192505f90610812565b5f9061096e610964565b6040513d5f823e3d90fd5b506315d7892d60e21b925f9250829150565b6108c66127109161089f565b506315d7892d60e21b915f91508190565b5060c435801515809103610122575f60e43512141561087b565b602435906001600160a01b0382168083036101225715801590610b58575b610b325760801d80600f0b905f82125f14610b4157506f7fffffffffffffffffffffffffffffff19811461084757610a6f6001600160801b03612710925f03167f000000000000000000000000000000000000000000000000000000000000000090610834565b048015610b32577f00000000000000000000000000000000000000000000000000000000000000006001600160a01b0316803b1561012257604051630b0d9c0960e01b81526001600160a01b0393841660048201527f00000000000000000000000000000000000000000000000000000000000000009093166024840152604483018290525f908390606490829084905af191821561099657610b1792610b22575b50610b71565b63b47b2fb160e01b91565b5f610b2c91610812565b5f610b11565b5063b47b2fb160e01b915f9150565b61271091506001600160801b03610a6f911661089f565b5060c435801515809103610122575f60e4351214610a08565b6001607f1b811015610b8357600f0b90565b6393dafdf160e01b5f5260045ffdfea2646970667358221220ba3c6bc48afbef06d926e5aac0128e9e246ceee3f8084aa10e7d5868f71075a164736f6c634300081a0033000000000000000000000000552815ef68e6eb418a3d65d0aa1043d93204f612000000000000000000000000e4e7d677e23544e12a0100b29e146b9164c831a20000000000000000000000000000000000000000000000000000000000000190",
        "nonce": "0xbf",
        "chainId": "0xb626"
      },
      "additionalContracts": [],
      "isFixedGasLimit": false
    },
    {
      "hash": "0x935abc24111a38c206a44af494e3566e86cf45bede79f8d9f943eaf72ed20fc9",
      "transactionType": "CREATE",
      "contractName": "BuybackEngine",
      "contractAddress": "0x6740a60418e175dd4030b2dbf54e3af5ad2c7206",
      "function": null,
      "arguments": [
        "0xe4e7d677e23544e12A0100b29E146b9164c831A2",
        "0x552815eF68E6eb418A3d65D0AA1043d93204F612"
      ],
      "transaction": {
        "from": "0x71b3cc4f406f345c27b150036fe5e5be03fc9e0b",
        "gas": "0x1ba9ff",
        "value": "0x0",
        "input": "0x60a0346100db57601f61185338819003918201601f19168301916001600160401b038311848410176100df5780849260409485528339810103126100db5780516001600160a01b03811691908290036100db5760200151906001600160a01b0382168083036100db576001549082159081156100d2575b506100c3575f80546001600160a01b031916331790556001600160a81b0319161760015560805260405161175f90816100f48239608051818181610297015281816105100152610cfc0152f35b63d92e233d60e01b5f5260045ffd5b9050155f610076565b5f80fd5b634e487b7160e01b5f52604160045260245ffdfe608080604052600436101561001c575b50361561001a575f80fd5b005b5f3560e01c90816321175b4a1461132657508063295a5212146112fe578063478222c2146112d657806347f63e9c146112b95780635e4e0ae8146111fa5780635f10fa8b1461119e5780638c7e0875146111275780638da5cb5b146111005780638ea78153146110d857806391dd734614610cac5780639c383b7414610990578063a368bcc31461031c578063bfe10928146102f4578063d928d6f5146102c6578063dc4c90d314610282578063e943513a146101785763f2fde38b146100e3575f61000f565b34610174576020366003190112610174576100fc6113ad565b5f546001600160a01b0381169133839003610165576001600160a01b03169182156101565782907f8be0079c531659141344cd1fd0a4f28419497f9722a3daafe3b4186f6b6457e05f80a36001600160a01b031916175f55005b63d92e233d60e01b5f5260045ffd5b6330cd747160e01b5f5260045ffd5b5f80fd5b346101745760a0366003190112610174575f546001600160a01b03163303610165576004356001600160a01b038116908181036101745750600280546001600160a01b0319169190911790556024356001600160a01b0381169081810361017457506001600160601b0360a01b600354161760035560443562ffffff81168103610174576003546064358060020b81036101745760b81b62ffffff60b81b169162ffffff60a01b9060a01b169065ffffffffffff60a01b1916171760035560843560018060a01b038116809103610174576001600160601b0360a01b60045416176004557f3df040f4cd0fb2d5d20e3d3dbbb4eec253882f6c4b3a40b4c78b3f76c774baf75f80a1005b34610174575f366003190112610174576040517f00000000000000000000000000000000000000000000000000000000000000006001600160a01b03168152602090f35b346101745760403660031901126101745760206102ec6102e46113c3565b6004356115e5565b604051908152f35b34610174575f366003190112610174576006546040516001600160a01b039091168152602090f35b34610174576040366003190112610174576024356004356001600160401b0382116101745736602383011215610174578160040135916001600160401b038311610174573660248460051b83010111610174575f546001600160a01b03163303610165576001546001600160a01b0316803b15610174575f809160246040518094819363fd4549ef60e01b83528860048401525af1801561063c57610980575b50606060ff60015460a01c166002811015610647576107d557506005546001600160a01b03169081156107c657600184036107b757604080519190610401818461143f565b60018352601f19015f5b81811061076357505081941561074f576104af926001600160801b0360246040519361043685611409565b60405161044281611424565b60018060a01b0360025416815260035460018060a01b038116602083015262ffffff8160a01c16604083015260b81c60020b606082015260018060a01b0360045416608082015285528288166020860152013516604083015260608201526104a98261154b565b5261154b565b505b604051604081016020808301528351809152606082019060208501905f5b8181106106f457505050816104f161050b935f9303601f19810183528261143f565b604051809381926348c8949160e01b8352600483016114f6565b0381837f00000000000000000000000000000000000000000000000000000000000000006001600160a01b03165af1801561063c5761065b575b5060ff60015460a01c16600281101561064757156105a9575b7f9f7ea26380d82142f8a567cc0386af3c3f718b60057f9793a359cdfd26f292729160609160ff60015460a01c1691519061059c60405180946113a0565b60208301526040820152a1005b60055460405163044df8e760e41b81529290602090849060049082905f906001600160a01b03165af191821561063c577f9f7ea26380d82142f8a567cc0386af3c3f718b60057f9793a359cdfd26f292729360609361060d575b509150915061055e565b61062e9060203d602011610635575b610626818361143f565b81019061156c565b5084610603565b503d61061c565b6040513d5f823e3d90fd5b634e487b7160e01b5f52602160045260245ffd5b3d805f833e61066a818361143f565b810190602081830312610174578051906001600160401b038211610174570181601f82011215610174578051906001600160401b0382116106e057604051926106bd601f8401601f19166020018561143f565b8284526020838301011161017457815f9260208093018386015e83010152610545565b634e487b7160e01b5f52604160045260245ffd5b9091926020610100600192865161070c8282516114b3565b6001600160801b03848201511660a08301526001600160801b0360408201511660c08301526060858060a01b039101511660e082015201940191019190916104cf565b634e487b7160e01b5f52603260045260245ffd5b60209060405161077281611409565b60405161077e81611424565b5f81525f848201525f60408201525f60608201525f608082015281525f838201525f60408201525f60608201528282870101520161040b565b63019af63760e01b5f5260045ffd5b630f27400160e11b5f5260045ffd5b9260018060a01b03600654169182156107c6576007549182158015610976575b6107b75761080283611520565b95610810604051978861143f565b838752601f1961081f85611520565b01905f5b82811061092457505f9288925090505f198501858111845b878610610850575050505050505050506104b1565b816108e4578583036108f857808a038a81116108e4576108719080926115ad565b9561087b816113ed565b508582101561074f576001600160801b036001938160248560051b8d0101916108b26002604051966108ac88611409565b01611460565b8552166020840152351660408201528a60608201526108d18288611558565b526108dc8187611558565b50019461083b565b634e487b7160e01b5f52601160045260245ffd5b61087161271061091c61ffff600161090f8b6113ed565b50015460a01c168d61157b565b0480926115ad565b60209060405161093381611409565b60405161093f81611424565b5f81525f848201525f60408201525f858201525f608082015281525f838201525f60408201525f8482015282828c01015201610823565b50828114156107f5565b5f61098a9161143f565b836103bc565b34610174576020366003190112610174576004356001600160401b0381116101745736602382011215610174578060040135906001600160401b038211610174576024810190602436918460081b010111610174575f546001600160a01b03163303610165576007545f60075580610c25575b505f80915b838310610a5557836127108303610a465760207f2001bce0097252733231d87b0ffd186c12d4d9c6faeaf97f812743b4c8c43d7c91604051908152a1005b63bbc50c8360e01b5f5260045ffd5b90610a7a9061ffff610a736040610a6d87898861158e565b0161159e565b16906115ad565b91610a8681858461158e565b90600754680100000000000000008110156106e057806001610aab92016007556113ed565b929092610c125780356001600160a01b03811681036101745783546001600160a01b0319166001600160a01b039182161784556001840190602083013590811681036101745781546001600160a01b0319166001600160a01b0391909116178155610b186040830161159e565b815461ffff60a01b191660a09190911b61ffff60a01b16179055610b3e606082016115ba565b6002840180546001600160a01b0319166001600160a01b03928316179055600384019190610b6e608083016115ba565b83546001600160a01b031916911617825560a08101359162ffffff831683036101745780549260c0830135938460020b85036101745765ffffffffffff60a01b191660a09190911b62ffffff60a01b161762ffffff60b81b60b89490941b939093169290921790915560e001356001600160a01b03811681036101745760046001930190838060a01b03166001600160601b0360a01b825416179055019190610a08565b634e487b7160e01b5f525f60045260245ffd5b806005029060058204036108e45760075f527fa66cc928b5edb82af9bd49922954155ab7b0942694bea4ce44661d9a8736c688017fa66cc928b5edb82af9bd49922954155ab7b0942694bea4ce44661d9a8736c6885b818110610c885750610a03565b805f600592555f60018201555f60028201555f60038201555f600482015501610c7b565b34610174576020366003190112610174576004356001600160401b03811161017457366023820112156101745780600401356001600160401b0381116101745781016024810190368211610174577f00000000000000000000000000000000000000000000000000000000000000006001600160a01b031692338490036110c957602081830312610174576024810135906001600160401b0382116101745701918060438401121561017457602483013591610d6783611520565b93610d75604051958661143f565b838552602060248187019560081b8301010192831161017457604401925b828410610ff25785855f5b8151811015610fce57610db18183611558565b519081516001600160801b03602084015116600160ff1b81146108e45760405190606082018281106001600160401b038211176106e0576040526001825260208201905f03815260408201916401000276a48352610e2060405194633cf3645360e21b865260048601906114b3565b51151560a48401525160c483015260018060a01b0390511660e48201526101206101048201525f610124820152602081610144815f895af190811561063c575f91610f9d575b508060801d600f0b5f8112610f38575b505f81600f0b135f14610f31576001600160801b03165b6001600160801b03604084015116808210610f19575080610eb4575b506001915001610d9e565b8251602001516060909301516001600160a01b039384169316853b156101745760405193630b0d9c0960e01b85526004850152602484015260448301525f8260648183885af191821561063c5760019215610ea9575f610f139161143f565b84610ea9565b91623756d160e11b5f5260045260245260445260645ffd5b505f610e8d565b6f7fffffffffffffffffffffffffffffff1981146108e45760206001600160801b0391600460405180948193630476982d60e21b83525f03168a5af1801561063c5715610e7657610f969060203d811161063557610626818361143f565b5085610e76565b90506020813d8211610fc6575b81610fb76020938361143f565b81010312610174575185610e66565b3d9150610faa565b610fee604051610fdf60208261143f565b5f8152604051918291826114f6565b0390f35b60248483030161010081126101745760a06040519161101083611409565b12610174576040519161102283611424565b61102b866113d9565b8352611039602087016113d9565b6020840152604086013562ffffff8116810361017457604084015260608601358060020b81036101745760608401526080860135916001600160a01b038316830361017457836020936080610100960152815261109860a08801611537565b838201526110a860c08801611537565b60408201526110b960e088016113d9565b6060820152815201930192610d93565b63570c108560e11b5f5260045ffd5b34610174575f366003190112610174576005546040516001600160a01b039091168152602090f35b34610174575f366003190112610174575f546040516001600160a01b039091168152602090f35b346101745760203660031901126101745760043560075481101561017457611151610100916113ed565b5061119c60018060a01b038254169161ffff611174600260018401549301611460565b9160405194855260018060a01b038116602086015260a01c16604084015260608301906114b3565bf35b34610174575f3660031901126101745760028054600354600454604080516001600160a01b039485168152838516602082015260a084811c62ffffff169282019290925260b89390931c90940b60608301529091166080820152f35b34610174576040366003190112610174576112136113ad565b61121b6113c3565b5f549091906001600160a01b03163303610165576001600160a01b031690811580156112a8575b61015657816040917f7f55069d78ee5bc40caa8c20b206f2c66a5e0376942d46eee3a7423694c8bbd3936001600160601b0360a01b600554161760055560018060a01b0316806001600160601b0360a01b600654161760065582519182526020820152a1005b506001600160a01b03811615611242565b34610174575f366003190112610174576020600754604051908152f35b34610174575f366003190112610174576001546040516001600160a01b039091168152602090f35b34610174575f36600319011261017457602060ff60015460a01c1661119c60405180926113a0565b34610174576020366003190112610174576004356002811015610174575f546001600160a01b03163303610165576001805460ff60a01b191660a083901b60ff60a01b161790557f3999b8ac9be57cf2fb4f2508733bf803394c77fbeae3203cf5593067125e7c9c9160209161139d9082906113a0565ba1005b9060028210156106475752565b600435906001600160a01b038216820361017457565b602435906001600160a01b038216820361017457565b35906001600160a01b038216820361017457565b60075481101561074f5760075f52600560205f20910201905f90565b608081019081106001600160401b038211176106e057604052565b60a081019081106001600160401b038211176106e057604052565b90601f801991011681019081106001600160401b038211176106e057604052565b9060405161146d81611424565b82546001600160a01b0390811682526001840154808216602084015260a081901c62ffffff16604084015260b81c600290810b6060840152909301549092166080830152565b80516001600160a01b03908116835260208083015182169084015260408083015162ffffff169084015260608083015160020b9084015260809182015116910152565b602060409281835280519182918282860152018484015e5f828201840152601f01601f1916010190565b6001600160401b0381116106e05760051b60200190565b35906001600160801b038216820361017457565b80511561074f5760200190565b805182101561074f5760209160051b010190565b90816020910312610174575190565b818102929181159184041417156108e457565b919081101561074f5760081b0190565b3561ffff811681036101745790565b919082018092116108e457565b356001600160a01b03811681036101745790565b519069ffffffffffffffffffff8216820361017457565b906115f16004926113ed565b506001810154604051633fabe5a360e21b81529360a09185919082906001600160a01b03165afa801561063c575f935f916116d5575b505f8413908115916116cc575b506116c557546040516370a0823160e01b81526001600160a01b0392831660048201529160209183916024918391165afa90811561063c575f9161168b575b50670de0b6b3a7640000916116879161157b565b0490565b90506020813d6020116116bd575b816116a66020938361143f565b810103126101745751670de0b6b3a7640000611673565b3d9150611699565b5050505f90565b9050155f611634565b93505060a0833d60a011611721575b816116f160a0938361143f565b8101031261017457611702836115ce565b5060208301516117196080606086015195016115ce565b50925f611627565b3d91506116e456fea2646970667358221220b0960270fd1c4221a5a50ff32c08aee8387f156db3f8b7ddfa2d3ffb7c5cc16064736f6c634300081a0033000000000000000000000000e4e7d677e23544e12a0100b29e146b9164c831a2000000000000000000000000552815ef68e6eb418a3d65d0aa1043d93204f612",
        "nonce": "0xc0",
        "chainId": "0xb626"
      },
      "additionalContracts": [],
      "isFixedGasLimit": false
    },
    {
      "hash": "0x62358a6dac1653ca69dc1450168b9a3dfef74c0ad21def4774c68a1056ea064d",
      "transactionType": "CREATE",
      "contractName": "BurnMode",
      "contractAddress": "0x2009f80de22555d604c4aab4485b416d786bb061",
      "function": null,
      "arguments": [
        "0xD8eCaEe6dc47Ce14232F9Eb9468009495a3f0E32"
      ],
      "transaction": {
        "from": "0x71b3cc4f406f345c27b150036fe5e5be03fc9e0b",
        "gas": "0x432d7",
        "value": "0x0",
        "input": "0x60a034608257601f61036f38819003918201601f19168301916001600160401b03831184841017608657808492602094604052833981010312608257516001600160a01b0381169081900360825780156073576080526040516102d4908161009b8239608051818181609b01526101380152f35b63d92e233d60e01b5f5260045ffd5b5f80fd5b634e487b7160e01b5f52604160045260245ffdfe6080604052600436101561001a575b3615610018575f80fd5b005b5f3560e01c806344df8e70146100ca5780637443159a14610086578063d89135cd1461006a5763fccc28130361000e5734610066575f36600319011261006657602060405161dead8152f35b5f80fd5b34610066575f3660031901126100665760205f54604051908152f35b34610066575f366003190112610066576040517f00000000000000000000000000000000000000000000000000000000000000006001600160a01b03168152602090f35b34610066575f3660031901126100665760206100e4610122565b604051908152f35b90601f8019910116810190811067ffffffffffffffff82111761010e57604052565b634e487b7160e01b5f52604160045260245ffd5b6040516370a0823160e01b8152306004820152907f00000000000000000000000000000000000000000000000000000000000000006001600160a01b0316602083602481845afa928315610245575f9361026a575b508215610264575f54838101809111610250575f91602091835560446040518094819363a9059cbb60e01b835261dead60048401528860248401525af1908115610245575f9161020a575b50156101fb577fcec1bae6e024d929f2929f3478ce70f55f9c636c8ef7b5073a61d7c3a432451b60405f548151908582526020820152a1565b6312171d8360e31b5f5260045ffd5b90506020813d60201161023d575b81610225602093836100ec565b8101031261006657518015158103610066575f6101c2565b3d9150610218565b6040513d5f823e3d90fd5b634e487b7160e01b5f52601160045260245ffd5b505f9150565b9092506020813d602011610296575b81610286602093836100ec565b810103126100665751915f610177565b3d915061027956fea2646970667358221220df4b35adad033b00aca3636444ee36dae800c120d0f0f630c6d72511150f0e0964736f6c634300081a0033000000000000000000000000d8ecaee6dc47ce14232f9eb9468009495a3f0e32",
        "nonce": "0xc1",
        "chainId": "0xb626"
      },
      "additionalContracts": [],
      "isFixedGasLimit": false
    },
    {
      "hash": "0x1ccd947cce963332a8919de7c429f8c5b0bf3d0b318d18c0aaa17bd70d79b9a1",
      "transactionType": "CALL",
      "contractName": "FeeVault",
      "contractAddress": "0xe4e7d677e23544e12a0100b29e146b9164c831a2",
      "function": "setAuthorized(address,bool)",
      "arguments": [
        "0x6740a60418e175Dd4030B2Dbf54E3AF5Ad2C7206",
        "true"
      ],
      "transaction": {
        "from": "0x71b3cc4f406f345c27b150036fe5e5be03fc9e0b",
        "to": "0xe4e7d677e23544e12a0100b29e146b9164c831a2",
        "gas": "0x10108",
        "value": "0x0",
        "input": "0x711bf9b20000000000000000000000006740a60418e175dd4030b2dbf54e3af5ad2c72060000000000000000000000000000000000000000000000000000000000000001",
        "nonce": "0xc2",
        "chainId": "0xb626"
      },
      "additionalContracts": [],
      "isFixedGasLimit": false
    },
    {
      "hash": "0x3ce4dd77b6352202259542e642f53cdb85a77a36402c9f9e6ec9733beeddc983",
      "transactionType": "CREATE",
      "contractName": "PoolModifyLiquidityTest",
      "contractAddress": "0xa229f2dbc4f4c6fc0350977e21b3346026cca95f",
      "function": null,
      "arguments": [
        "0x552815eF68E6eb418A3d65D0AA1043d93204F612"
      ],
      "transaction": {
        "from": "0x71b3cc4f406f345c27b150036fe5e5be03fc9e0b",
        "gas": "0x148625",
        "value": "0x0",
        "input": "0x60a034607a57601f61124838819003918201601f19168301916001600160401b03831184841017607e57808492602094604052833981010312607a57516001600160a01b0381168103607a576080526040516111b590816100938239608051818181609501528181610713015281816108160152610d0a0152f35b5f80fd5b634e487b7160e01b5f52604160045260245ffdfe60806040526004361015610011575f80fd5b5f3560e01c80630a5b11e414610845578063481c6a75146108015780635a6bcfda146105d8576391dd734614610045575f80fd5b346105c15760203660031901126105c1576004356001600160401b0381116105c157366023820112156105c15780600401356001600160401b0381116105c157810160248101903682116105c1577f0000000000000000000000000000000000000000000000000000000000000000926001600160a01b03841690338290036105c1576020818403126105c1576024810135906001600160401b0382116105c15701906101a0828403126105c157604051916101008361090f565b61010c60248201610995565b835260a0601f1982860301126105c157604051936101298561093e565b61013560448301610995565b855261014360648301610995565b6020860152608482013562ffffff811681036105c157604086015261016a60a483016109a9565b606086015260c48201356001600160a01b03811681036105c15760809160249183880152602086019687528360e31991030101126105c157604051956101af87610959565b6101bb60e483016109a9565b87526101ca61010483016109a9565b602088015261012482013560408801526101448201356060880152604084019687526101648201356001600160401b0381116105c1576102c696602461021292850101610aa7565b9160608501928352604061023d6101a461022f6101848501610aed565b936080890194855201610aed565b9360a0870194855261026a60a08951208b51805160020b6060602083015160020b92015192309089610b8c565b5050956102985f8c6102da8c519151955187519e8f9788968795632d35e7ed60e11b87526004870190610b1e565b8051600290810b60a48701526020820151900b60c4860152604081015160e486015260600151610104850152565b610140610124840152610144830190610afa565b03925af19687156105cd575f97610595575b5061031260a08751208951805160020b6060602083015160020b92015192309087610b8c565b505086515186519192916103349130916001600160a01b039081169116610cfb565b8951602001518951919593506001600160801b0392506103629130916001600160a01b039182169116610cfb565b9891505016600f0b9060408b510151915f8382019384129112908015821691151617610581576001600160801b0316600f0b0361053c576040610423995101515f81125f146104f757505f821380156104ee575b6103bf90610b61565b5f821280156104e5575b6103d39015610b61565b5f82126104b5575b5f8512610480575b505f8113610455575b505f8313610427575b86866040519060208201526020815261040f604082610974565b604051918291602083526020830190610afa565b0390f35b9351602001519251905161044b94901515936001600160a01b03928316921661101a565b5f808080806103f5565b8551518551845161047a939015159290916001600160a01b039081169186911661101a565b5f6103ec565b86516020015186516104af926001600160a01b0392831692909116856104a589610b7c565b9251151593610dda565b5f6103e3565b86515186516104e0916001600160a01b0390811691166104d485610b7c565b90868551151593610dda565b6103db565b505f85126103c9565b505f85136103b6565b5f12156103d3575f82128015610533575b61051190610b61565b5f8213801561052a575b6105259015610b61565b6103d3565b505f851361051b565b505f8512610508565b60405162461bcd60e51b815260206004820152601a60248201527f6c6971756964697479206368616e676520696e636f72726563740000000000006044820152606490fd5b634e487b7160e01b5f52601160045260245ffd5b9096506040813d6040116105c5575b816105b160409383610974565b810103126105c15751955f6102ec565b5f80fd5b3d91506105a4565b6040513d5f823e3d90fd5b6101403660031901126105c1576105ee366109b7565b6105f736610a3e565b61012435916001600160401b0383116105c1576106ec5f9261062061070e953690600401610aa7565b6040519161062d8361090f565b3383526020830194855260408301908152606083019182526106cb60808401928784526106b660a0860193898552610684604051998a986020808b015260018060a01b0390511660408a0152516060890190610b1e565b518051600290810b6101008901526020820151900b610120880152604081015161014088015260600151610160870152565b516101a06101808601526101e0850190610afa565b915115156101a08401525115156101c083015203601f198101835282610974565b604051809381926348c8949160e01b8352602060048401526024830190610afa565b0381837f00000000000000000000000000000000000000000000000000000000000000006001600160a01b03165af19081156105cd575f91610788575b506020818051810103126105c15760200151478061076f575b602082604051908152f35b5f80808093335af1156107825781610764565b336110c9565b90503d805f833e6107998183610974565b8101906020818303126105c1578051906001600160401b0382116105c1570181601f820112156105c1578051906107cf82610a8c565b926107dd6040519485610974565b828452602083830101116105c157815f9260208093018386015e830101528161074b565b346105c1575f3660031901126105c1576040517f00000000000000000000000000000000000000000000000000000000000000006001600160a01b03168152602090f35b6101803660031901126105c15761085b366109b7565b61086436610a3e565b610124356001600160401b0381116105c157610884903690600401610aa7565b9161014435928315158094036105c15761016435928315158094036105c15761070e945f946106cb6106ec946106b6604051956108c08761090f565b3387526020870198895260408701908152606087019283526080870195865260a08701948552610684604051998a986020808b015260018060a01b0390511660408a0152516060890190610b1e565b60c081019081106001600160401b0382111761092a57604052565b634e487b7160e01b5f52604160045260245ffd5b60a081019081106001600160401b0382111761092a57604052565b608081019081106001600160401b0382111761092a57604052565b90601f801991011681019081106001600160401b0382111761092a57604052565b35906001600160a01b03821682036105c157565b35908160020b82036105c157565b60a09060031901126105c157604051906109d08261093e565b816004356001600160a01b03811681036105c15781526024356001600160a01b03811681036105c157602082015260443562ffffff811681036105c15760408201526064358060020b81036105c1576060820152608435906001600160a01b03821682036105c15760800152565b60809060a31901126105c15760405190610a5782610959565b8160a4358060020b81036105c157815260c4358060020b81036105c157602082015260e4356040820152606061010435910152565b6001600160401b03811161092a57601f01601f191660200190565b81601f820112156105c157803590610abe82610a8c565b92610acc6040519485610974565b828452602083830101116105c157815f926020809301838601378301015290565b359081151582036105c157565b805180835260209291819084018484015e5f828201840152601f01601f1916010190565b80516001600160a01b03908116835260208083015182169084015260408083015162ffffff169084015260608083015160020b9084015260809182015116910152565b15610b6857565b634e487b7160e01b5f52600160045260245ffd5b600160ff1b8114610581575f0390565b94939290926040519460268601526006850152600384015282525f603a600c8401209281604082015281602082015252604051602081019182526006604082015260408152610bdc606082610974565b5190209060068201809211610581575f916040519060208201928352604082015260408152610c0c606082610974565b519020604051631afeb18d60e11b815260048101919091526003602482015291829060449082906001600160a01b03165afa9081156105cd575f91610c61575b50602081015160408201516060909201519092565b90503d805f833e610c728183610974565b8101906020818303126105c1578051906001600160401b0382116105c157019080601f830112156105c1578151916001600160401b03831161092a578260051b9060405193610cc46020840186610974565b84526020808501928201019283116105c157602001905b828210610ceb575050505f610c4c565b8151815260209182019101610cdb565b9290610d079084611132565b927f00000000000000000000000000000000000000000000000000000000000000006001600160a01b031690610d3d8282611132565b9360018060a01b03165f5260018060a01b0316602052602060405f2060246040518094819363789add5560e11b835260048301525afa9081156105cd575f91610d84575090565b90506020813d602011610dab575b81610d9f60209383610974565b810103126105c1575190565b3d9150610d92565b908160209103126105c1575180151581036105c15790565b908160209103126105c1575190565b9291935f14610e47576001600160a01b0316803b156105c157604051637a94c56560e11b81526001600160a01b03948516600482015293909216602484015260448301525f908290818381606481015b03925af180156105cd57610e3b5750565b5f610e4591610974565b565b90916001600160a01b031680610eb45750604051630476982d60e21b81529250602091839160049183916001600160a01b03165af180156105cd57610e895750565b610eaa9060203d602011610ead575b610ea28183610974565b810190610dcb565b50565b503d610e98565b6001600160a01b0390911691823b156105c157604051632961046560e21b8152600481018390525f9490858160248183895af180156105cd57611005575b506001600160a01b031684308214610faa576020929160649160405195869485936323b872dd60e01b8552600485015288602485015260448401525af18015610f9f57916020918493610f72575b505b600460405180958193630476982d60e21b83525af1908115610f665750610e895750565b604051903d90823e3d90fd5b610f9190833d8511610f98575b610f898183610974565b810190610db3565b505f610f40565b503d610f7f565b6040513d85823e3d90fd5b9290506044602092604051948593849263a9059cbb60e01b845288600485015260248401525af18015610f9f57916020918493610fe8575b50610f42565b610ffe90833d8511610f9857610f898183610974565b505f610fe2565b6110129195505f90610974565b5f935f610ef2565b9291935f1461106e576001600160a01b0316803b156105c157604051630ab714fb60e11b81526001600160a01b03948516600482015293909216602484015260448301525f90829081838160648101610e2a565b9092906001600160a01b0316803b156105c157604051630b0d9c0960e01b81526001600160a01b03938416600482015291909216602482015260448101929092525f908290606490829084905af180156105cd57610e3b5750565b6040516390bfb86560e01b81526001600160a01b0390911660048201525f602482018190526080604483015260a03d601f01601f191690810160648401523d6084840152903d9060a484013e808201600460a482015260c4633d2cec6f60e21b91015260e40190fd5b6001600160a01b03168061114557503190565b6040516370a0823160e01b81526001600160a01b039092166004830152602090829060249082905afa9081156105cd575f91610d8457509056fea2646970667358221220a2cd6adbcea53a70ede32c127da8ae138b2db465527d48ed3ad7886ea350819c64736f6c634300081a0033000000000000000000000000552815ef68e6eb418a3d65d0aa1043d93204f612",
        "nonce": "0xc3",
        "chainId": "0xb626"
      },
      "additionalContracts": [],
      "isFixedGasLimit": false
    },
    {
      "hash": "0x5e904536beae72cac3a76a5d3e8f18e2f093f7bfd401caec6170c3aa62018c66",
      "transactionType": "CREATE",
      "contractName": "RedemptionVault",
      "contractAddress": "0xdb71f8831dab638e05986d9c4f064546bf184462",
      "function": null,
      "arguments": [
        "0xD8eCaEe6dc47Ce14232F9Eb9468009495a3f0E32",
        "0x008baC045a4220Bf6755564C5eA2e1B271EB670F",
        "0x008baC045a4220Bf6755564C5eA2e1B271EB670F",
        "100",
        "9000",
        "5000",
        "2592000",
        "3600",
        "[(0x119E0A8c499dE27a2fC2a341aF229802D2548d19, 0x6bB2e06756AC4D556D7D853565B7a23289Fe1ba5, 10000, 0)]"
      ],
      "transaction": {
        "from": "0x71b3cc4f406f345c27b150036fe5e5be03fc9e0b",
        "gas": "0x1aa749",
        "value": "0x0",
        "input": "0x60a0604052346105a657611a0480380380610019816105aa565b9283398101610120828203126105a657610032826105cf565b61003e602084016105cf565b9061004b604085016105cf565b92610058606086016105e3565b610064608087016105e3565b9161007160a088016105e3565b9460c08801519163ffffffff8316958684036105a65760e08a01516101008b0151909a6001600160401b0382116105a6570182601f820112156105a6578051906001600160401b0382116103d1576100ce60208360051b016105aa565b9360208086858152019360071b830101918183116105a657602001925b82841061052d575050505060018060a01b0316908115801561051c575b6104ea578051801580156104e0575b6104b4575f905f925b818410610258575050612710915003610228573360018060a01b03195f5416175f5560805260018060a01b031660018060a01b031960015416176001556002549261ffff8116155f146102225750612328935b61021d575062278d005b60c09490941b61ffff60c01b1660b09390931b61ffff60b01b166001600160f01b03199092166001600160a01b039095169490941760a09490941b61ffff60a01b1693909317929092179190911760d09190911b63ffffffff60d01b1617600255806102185750610e105b6003556040516113fd9081610607823960805181818161019d01528181610b0501528181610f080152610fbe0152f35b6101e8565b61017d565b93610173565b6040516301cfc2ef60e61b81526020600482015260076024820152667765696768747360c81b6044820152606490fd5b90916001600160a01b0361026c85846105f2565b515116158015610495575b61045c575f5b8481106103f9575061ffff604061029486856105f2565b5101511681018091116103e557926102ac81836105f2565b5190600454680100000000000000008110156103d15760018101806004558110156103bd5760045f52825160019190911b7f8a35acfbc15ff81a39ae7d344fd709f28e8600b4aa8c65c6b64bfe7fe36bd19b810180546001600160a01b0319166001600160a01b0393841617905560208401517f8a35acfbc15ff81a39ae7d344fd709f28e8600b4aa8c65c6b64bfe7fe36bd19c909101805460408601516001600160b01b0319909116929093169190911760a09290921b61ffff60a01b16919091178155606092909201519160038310156103a957805460ff60b01b191660b09390931b60ff60b01b1692909217909155600101929190610120565b634e487b7160e01b5f52602160045260245ffd5b634e487b7160e01b5f52603260045260245ffd5b634e487b7160e01b5f52604160045260245ffd5b634e487b7160e01b5f52601160045260245ffd5b6001600160a01b0361040b82856105f2565b5151166001600160a01b0361042087866105f2565b515116146104305760010161027d565b6040516301cfc2ef60e61b815260206004820152600360248201526206475760ec1b6044820152606490fd5b6040516301cfc2ef60e61b815260206004820152601060248201526f1e995c9bc818dbdb9cdd1a5d1d595b9d60821b6044820152606490fd5b506001600160a01b0360206104aa86856105f2565b5101511615610277565b6040516301cfc2ef60e61b81526020600482015260036024820152623632b760e91b6044820152606490fd5b5060148111610117565b6040516301cfc2ef60e61b81526020600482015260096024820152683d32b9379030b2323960b91b6044820152606490fd5b506001600160a01b03831615610108565b6080848303126105a65760405190608082016001600160401b038111838210176103d15760405261055d856105cf565b825261056b602086016105cf565b602083015261057c604086016105e3565b604083015260608501519060038210156105a65782602092606060809501528152019301926100eb565b5f80fd5b6040519190601f01601f191682016001600160401b038111838210176103d157604052565b51906001600160a01b03821682036105a657565b519061ffff821682036105a657565b80518210156103bd5760209160051b01019056fe608080604052600436101561001c575b50361561001a575f80fd5b005b5f3560e01c90816303fd2a4514610dd757508063043645ee14610d5357806309b22adb14610c0457806336012d4414610bde5780633b88694514610bbb57806344dd06f714610b7957806361d027b314610b5157806370b69acb14610b345780637443159a14610af057806375829def14610aa55780638c7e087514610a365780639358928b14610a1c5780639564cdb6146109a15780639c7258b01461075d578063a036f25b14610743578063baa44a3f1461071b578063c0761722146106f7578063c1590cd7146106dd578063c9a8f6f5146106b2578063d68002f31461068e578063da6f9bf21461066a578063db006a75146101505763f851a44014610125575f61000f565b3461014c575f36600319011261014c575f546040516001600160a01b039091168152602090f35b5f80fd5b3461014c57602036600319011261014c57600435801561065b57610172610faf565b61017b33611311565b6040516323b872dd60e01b8152336004820152306024820152604481018490527f00000000000000000000000000000000000000000000000000000000000000006001600160a01b0316906020816064815f865af1908115610419575f9161063c575b50156106115760205f9160446040518094819363a9059cbb60e01b835261dead60048401528960248401525af1908115610419575f916105f2575b50156105c7575f916004545f915b81831061026957505050604051928352602083015260408201527f484c40561359f3e3b8be9101897f8680aa82fbe1df9fd9038e0dbc628403264660603392a2005b90919361027585610e14565b509060ff600183015460b01c1660038110156105b3576002146105a95781546040516370a0823160e01b81523060048201526001600160a01b039091169290602081602481875afa80156104195789915f91610575575b508015610568576102e16102e6928792610e82565b610ea9565b6102fe6127106102f68984610e82565b048092610fa2565b9361033361271061032b61ffff8261031f6002549a838c60c01c1690610e82565b049860a01c1685610e82565b048093610fa2565b90816104d6575b505080610438575b5082151580610424575b610368575b5060019161035e9161110a565b945b019190610227565b5460025460405163a9059cbb60e01b81526001600160a01b0391821660048201526024810185905291602091839160449183915f91165af1908115610419575f916103eb575b50156103ba5787610351565b60405162461bcd60e51b81526020600482015260096024820152683c1031b932b0ba37b960b91b6044820152606490fd5b61040c915060203d8111610412575b6104048183610e60565b810190611398565b886103ae565b503d6103fa565b6040513d5f823e3d90fd5b506002546001600160a01b0316151561034c565b815460015460405163a9059cbb60e01b81526001600160a01b0391821660048201526024810193909352602091839160449183915f91165af1908115610419575f916104b8575b501561048b5788610342565b60405162461bcd60e51b8152602060048201526005602482015264782066656560d81b6044820152606490fd5b6104d0915060203d8111610412576104048183610e60565b8961047f565b60405163a9059cbb60e01b81523360048201526024810192909252602090829060449082905f905af1908115610419575f9161054a575b501561051a57898061033a565b60405162461bcd60e51b81526020600482015260086024820152673c103437b63232b960c11b6044820152606490fd5b610562915060203d8111610412576104048183610e60565b8a61050d565b5050509460019150610360565b9150506020813d82116105a1575b8161059060209383610e60565b8101031261014c578890518a6102cc565b3d9150610583565b9460019150610360565b634e487b7160e01b5f52602160045260245ffd5b606460405162461bcd60e51b8152602060048201526004602482015263313ab93760e11b6044820152fd5b61060b915060203d602011610412576104048183610e60565b84610219565b606460405162461bcd60e51b81526020600482015260046024820152631c1d5b1b60e21b6044820152fd5b610655915060203d602011610412576104048183610e60565b856101de565b6304c4857b60e51b5f5260045ffd5b3461014c575f36600319011261014c57602061ffff60025460c01c16604051908152f35b3461014c575f36600319011261014c57602061ffff60025460a01c16604051908152f35b3461014c57602036600319011261014c5760206106d56106d0610dfe565b611311565b604051908152f35b3461014c575f36600319011261014c5760206106d5611117565b3461014c575f36600319011261014c57602061ffff60025460b01c16604051908152f35b3461014c575f36600319011261014c576002546040516001600160a01b039091168152602090f35b3461014c575f36600319011261014c5760206106d56110c9565b3461014c57606036600319011261014c57610776610dfe565b6024356001600160a01b0381169081900361014c576044359161ffff831680930361014c575f546001600160a01b03163303610992576001600160a01b03168015801561098a575b61095b5760045492601484101561092f575f5b8481106108e15750604051936107e685610e44565b8285526020850194848652604081019083825260608101925f8452680100000000000000008110156108cd578060016108229201600455610e14565b6108ba57905181546001600160a01b0319166001600160a01b039182161782559651600191909101805492516001600160b01b0319909316919097161760a09190911b61ffff60a01b16178555519260038410156105b3576108a76060947fe36f6f4a51b9359dafa06c036bc41ae8afac5484966aada8a78d0cf0bfc2693b966110a5565b60405192835260208301526040820152a1005b634e487b7160e01b5f525f60045260245ffd5b634e487b7160e01b5f52604160045260245ffd5b826108eb82610e14565b50546001600160a01b031614610903576001016107d1565b6040516301cfc2ef60e61b815260206004820152600360248201526206475760ec1b6044820152606490fd5b6040516301cfc2ef60e61b81526020600482015260036024820152623632b760e91b6044820152606490fd5b6040516301cfc2ef60e61b815260206004808301919091526024820152637a65726f60e01b6044820152606490fd5b5081156107be565b637bfa4b9f60e01b5f5260045ffd5b3461014c57604036600319011261014c57600435602435600381101561014c575f546001600160a01b0316330361099257602081610a0c7fd67c4729720d71b0ce6863cf583a8177f4cdd7ad6bab707476331884313a33d8936001610a0587610e14565b50016110a5565b610a196040518092610df1565ba2005b3461014c575f36600319011261014c5760206106d5610faf565b3461014c57602036600319011261014c5760043560045481101561014c57610a5f608091610e14565b50805460019190910154604080516001600160a01b039384168152928216602084015260a082901c61ffff1690830152610aa390606083019060b01c60ff16610df1565bf35b3461014c57602036600319011261014c57610abe610dfe565b5f54906001600160a01b0382163303610992576001600160a01b031690811561095b576001600160a01b031916175f55005b3461014c575f36600319011261014c576040517f00000000000000000000000000000000000000000000000000000000000000006001600160a01b03168152602090f35b3461014c575f36600319011261014c576020600354604051908152f35b3461014c575f36600319011261014c576001546040516001600160a01b039091168152602090f35b3461014c57602036600319011261014c576001600160a01b03610b9a610dfe565b165f526005602052602067ffffffffffffffff60405f205416604051908152f35b3461014c57602036600319011261014c5760206106d5610bd9610dfe565b610ec7565b3461014c575f36600319011261014c57602063ffffffff60025460d01c16604051908152f35b3461014c575f36600319011261014c5760045467ffffffffffffffff81116108cd5760405190610c3a60208260051b0183610e60565b80825260208201809160045f527f8a35acfbc15ff81a39ae7d344fd709f28e8600b4aa8c65c6b64bfe7fe36bd19b915f905b828210610cf2578486604051918291602083019060208452518091526040830191905f5b818110610c9e575050500390f35b9193509160206080600192610ce460608851868060a01b038151168452868060a01b0386820151168685015261ffff604082015116604085015201516060830190610df1565b019401910191849392610c90565b604051610cfe81610e44565b84546001600160a01b0390811682526001860154908116602083015260a081901c61ffff16604083015260b01c60ff1660038110156105b3576001928260209260606002950152815201940191019092610c6c565b3461014c575f36600319011261014c57335f52600560205267ffffffffffffffff60405f20541615610d8157005b67ffffffffffffffff4216335f52600560205260405f208167ffffffffffffffff198254161790556040519081527ffaff1698d57dcb3ac28118cf68178a88fe2ccf440b7e73b943119de96d8ddf4360203392a2005b3461014c575f36600319011261014c578061dead60209252f35b9060038210156105b35752565b600435906001600160a01b038216820361014c57565b600454811015610e305760045f5260205f209060011b01905f90565b634e487b7160e01b5f52603260045260245ffd5b6080810190811067ffffffffffffffff8211176108cd57604052565b90601f8019910116810190811067ffffffffffffffff8211176108cd57604052565b81810292918115918404141715610e9557565b634e487b7160e01b5f52601160045260245ffd5b8115610eb3570490565b634e487b7160e01b5f52601260045260245ffd5b610ecf610faf565b15610f9d57610edc6110c9565b6040516370a0823160e01b81526001600160a01b038381166004830152909190602090839060249082907f0000000000000000000000000000000000000000000000000000000000000000165afa918215610419575f92610f65575b5091610f5b610f55610f619369021e19e0c9bab240000095610e82565b91611311565b90610e82565b0490565b9150916020823d602011610f95575b81610f8160209383610e60565b8101031261014c5790519091610f5b610f38565b3d9150610f74565b505f90565b91908203918211610e9557565b6040516318160ddd60e01b81527f00000000000000000000000000000000000000000000000000000000000000006001600160a01b0316602082600481845afa918215610419575f92611070575b50906020602492604051938480926370a0823160e01b825261dead60048301525afa908115610419575f9161103a575b6110379250610fa2565b90565b90506020823d602011611068575b8161105560209383610e60565b8101031261014c5761103791519061102d565b3d9150611048565b91506020823d60201161109d575b8161108b60209383610e60565b8101031261014c579051906020610ffd565b3d915061107e565b9060038110156105b357815460ff60b01b191660b09190911b60ff60b01b16179055565b6110d1610faf565b8015610f9d576110df611117565b90670de0b6b3a7640000820291808304670de0b6b3a76400001490151715610e955761103791610ea9565b91908201809211610e9557565b5f906004545f905b80821061112a575050565b909261113584610e14565b506001810154604051633fabe5a360e21b815291906001600160a01b031660a083600481845afa8015610419575f935f916112be575b505f8413908115916112b5575b81156112a0575b5061128e57906020600493926040519485809263313ce56760e01b82525afa928315610419575f93611250575b50546040516370a0823160e01b815230600482015290602090829060249082906001600160a01b03165afa908115610419575f9161121e575b5060ff916111f291610e82565b911691604d8311610e955761121061121692600194600a0a90610ea9565b9061110a565b93019061111f565b90506020813d8211611248575b8161123860209383610e60565b8101031261014c575160ff6111e5565b3d915061122b565b9092506020813d8211611286575b8161126b60209383610e60565b8101031261014c575160ff8116810361014c579160206111ac565b3d915061125e565b638192792960e01b5f5260045260245ffd5b6112ab915042610fa2565b600354105f61117f565b80159150611178565b93505060a0833d8211611309575b816112d960a09383610e60565b8101031261014c576112ea836113b0565b5060208301516113016080606086015195016113b0565b50925f61116b565b3d91506112cc565b6001600160a01b03165f9081526005602052604090205467ffffffffffffffff16801561138a576113429042610fa2565b6002549063ffffffff8260d01c1691828210156113815761ffff9060b01c16908161271003926127108411610e95576102e16112109261103795610e82565b50505061271090565b5061ffff60025460b01c1690565b9081602091031261014c5751801515810361014c5790565b519069ffffffffffffffffffff8216820361014c5756fea2646970667358221220ca8ccfaf3ce4722020f5c2b263c516e16044d460021103c06e5878a31a933a9164736f6c634300081a0033000000000000000000000000d8ecaee6dc47ce14232f9eb9468009495a3f0e32000000000000000000000000008bac045a4220bf6755564c5ea2e1b271eb670f000000000000000000000000008bac045a4220bf6755564c5ea2e1b271eb670f0000000000000000000000000000000000000000000000000000000000000064000000000000000000000000000000000000000000000000000000000000232800000000000000000000000000000000000000000000000000000000000013880000000000000000000000000000000000000000000000000000000000278d000000000000000000000000000000000000000000000000000000000000000e1000000000000000000000000000000000000000000000000000000000000001200000000000000000000000000000000000000000000000000000000000000001000000000000000000000000119e0a8c499de27a2fc2a341af229802d2548d190000000000000000000000006bb2e06756ac4d556d7d853565b7a23289fe1ba500000000000000000000000000000000000000000000000000000000000027100000000000000000000000000000000000000000000000000000000000000000",
        "nonce": "0xc4",
        "chainId": "0xb626"
      },
      "additionalContracts": [],
      "isFixedGasLimit": false
    },
    {
      "hash": "0xba246522e216ebe359e8214f7eca990d57ffc541ac8e867a7896c118e0d2e192",
      "transactionType": "CREATE",
      "contractName": "GagDistributor",
      "contractAddress": "0x36fded5a77c709bc8d36ec9bb81cbc1bc2f140c9",
      "function": null,
      "arguments": [
        "0x119E0A8c499dE27a2fC2a341aF229802D2548d19",
        "0xDb71F8831dAb638E05986D9C4F064546BF184462",
        "0xD8eCaEe6dc47Ce14232F9Eb9468009495a3f0E32",
        "6000"
      ],
      "transaction": {
        "from": "0x71b3cc4f406f345c27b150036fe5e5be03fc9e0b",
        "gas": "0x724af",
        "value": "0x0",
        "input": "0x6101003461017657601f61071638819003918201601f19168301916001600160401b0383118484101761017a57808492608094604052833981010312610176576100488161018e565b906100556020820161018e565b60606100636040840161018e565b9201519261ffff841690818503610176576001600160a01b03169081151580610164575b80610152575b1561012757612710106100fc5760805260a0526001600160a01b031660c05260e05260405161057390816101a38239608051818181606801526101e9015260a05181818161011a015261040f015260c05181818160d60152610282015260e05181818161016101526102350152f35b60405162461bcd60e51b815260206004820152600360248201526262707360e81b6044820152606490fd5b606460405162461bcd60e51b81526020600482015260046024820152637a65726f60e01b6044820152fd5b506001600160a01b038416151561008d565b506001600160a01b0383161515610087565b5f80fd5b634e487b7160e01b5f52604160045260245ffd5b51906001600160a01b03821682036101765756fe6080806040526004361015610012575f80fd5b5f3560e01c908163389254491461014957508063cd3293de14610105578063d924e84a146100c1578063e4fc6b6d1461009b5763f5b91b7b14610053575f80fd5b34610097575f366003190112610097576040517f00000000000000000000000000000000000000000000000000000000000000006001600160a01b03168152602090f35b5f80fd5b34610097575f3660031901126100975760406100b56101d3565b82519182526020820152f35b34610097575f366003190112610097576040517f00000000000000000000000000000000000000000000000000000000000000006001600160a01b03168152602090f35b34610097575f366003190112610097576040517f00000000000000000000000000000000000000000000000000000000000000006001600160a01b03168152602090f35b34610097575f3660031901126100975760209061ffff7f0000000000000000000000000000000000000000000000000000000000000000168152f35b90601f8019910116810190811067ffffffffffffffff8211176101a757604052565b634e487b7160e01b5f52604160045260245ffd5b90816020910312610097575180151581036100975790565b6040516370a0823160e01b8152306004820152907f00000000000000000000000000000000000000000000000000000000000000006001600160a01b031690602083602481855afa928315610397575f93610509575b5082156105015761ffff7f00000000000000000000000000000000000000000000000000000000000000001680840290848204036104ed576127109004928381038181116104ed57604051633a98ef3960e01b815290937f00000000000000000000000000000000000000000000000000000000000000006001600160a01b0316929091602081600481875afa908115610397575f916104bb575b50156104b0575b5084610400575b8361030b575b50507f97791d3ac1343e05805a2f905fa80b249c2ca58cf9fef455d4fa7ec13ce5832160408051858152846020820152a1565b60405163095ea7b360e01b81526001600160a01b03831660048201526024810185905290602090829060449082905f905af1908115610397575f916103d1575b50156103a257803b15610097575f8091602460405180948193633243c79160e01b83528860048401525af1801561039757610387575b806102d8565b5f61039191610185565b5f610381565b6040513d5f823e3d90fd5b60405162461bcd60e51b8152602060048201526007602482015266617070726f766560c81b6044820152606490fd5b6103f3915060203d6020116103f9575b6103eb8183610185565b8101906101bb565b5f61034b565b503d6103e1565b60405163a9059cbb60e01b81527f00000000000000000000000000000000000000000000000000000000000000006001600160a01b03166004820152602481018690526020816044815f865af1908115610397575f91610491575b506102d25760405162461bcd60e51b815260206004820152600960248201526878207265736572766560b81b6044820152606490fd5b6104aa915060203d6020116103f9576103eb8183610185565b5f61045b565b94505f9350836102cb565b90506020813d6020116104e5575b816104d660209383610185565b8101031261009757515f6102c4565b3d91506104c9565b634e487b7160e01b5f52601160045260245ffd5b5f9250829150565b9092506020813d602011610535575b8161052560209383610185565b810103126100975751915f610229565b3d915061051856fea2646970667358221220a401f80cdd55a54db323edded0407b8a5987871becc3fcb7c33b82ffeac8bc2864736f6c634300081a0033000000000000000000000000119e0a8c499de27a2fc2a341af229802d2548d19000000000000000000000000db71f8831dab638e05986d9c4f064546bf184462000000000000000000000000d8ecaee6dc47ce14232f9eb9468009495a3f0e320000000000000000000000000000000000000000000000000000000000001770",
        "nonce": "0xc5",
        "chainId": "0xb626"
      },
      "additionalContracts": [],
      "isFixedGasLimit": false
    },
    {
      "hash": "0x3d4da3b5aff0d55faa365e127a817197ea043f9b58f6e7d3a5abaeacaedf939f",
      "transactionType": "CALL",
      "contractName": "GoodAsGold",
      "contractAddress": "0xd8ecaee6dc47ce14232f9eb9468009495a3f0e32",
      "function": "setDistributor(address)",
      "arguments": [
        "0x36FdeD5a77C709bc8D36ec9Bb81CbC1Bc2f140C9"
      ],
      "transaction": {
        "from": "0x71b3cc4f406f345c27b150036fe5e5be03fc9e0b",
        "to": "0xd8ecaee6dc47ce14232f9eb9468009495a3f0e32",
        "gas": "0xf961",
        "value": "0x0",
        "input": "0x75619ab500000000000000000000000036fded5a77c709bc8d36ec9bb81cbc1bc2f140c9",
        "nonce": "0xc6",
        "chainId": "0xb626"
      },
      "additionalContracts": [],
      "isFixedGasLimit": false
    },
    {
      "hash": "0xf7926165926251d50b05dc199133fa3233978a3a3f5f144eb5d7b90c2d72b662",
      "transactionType": "CALL",
      "contractName": "MockStockToken",
      "contractAddress": "0x119e0a8c499de27a2fc2a341af229802d2548d19",
      "function": "mint(address,uint256)",
      "arguments": [
        "0x71b3cc4F406f345C27b150036fE5E5Be03fc9e0b",
        "1000000000000000000000000"
      ],
      "transaction": {
        "from": "0x71b3cc4f406f345c27b150036fe5e5be03fc9e0b",
        "to": "0x119e0a8c499de27a2fc2a341af229802d2548d19",
        "gas": "0x17b59",
        "value": "0x0",
        "input": "0x40c10f1900000000000000000000000071b3cc4f406f345c27b150036fe5e5be03fc9e0b00000000000000000000000000000000000000000000d3c21bcecceda1000000",
        "nonce": "0xc7",
        "chainId": "0xb626"
      },
      "additionalContracts": [],
      "isFixedGasLimit": false
    },
    {
      "hash": "0x4e0cff30c2a40c27ab347ad91a8067f90a273debb6b5d147bafbc04d3a6e6b36",
      "transactionType": "CALL",
      "contractName": "MockStockToken",
      "contractAddress": "0x119e0a8c499de27a2fc2a341af229802d2548d19",
      "function": "approve(address,uint256)",
      "arguments": [
        "0xa229f2dbC4f4C6fc0350977e21b3346026CCA95F",
        "115792089237316195423570985008687907853269984665640564039457584007913129639935"
      ],
      "transaction": {
        "from": "0x71b3cc4f406f345c27b150036fe5e5be03fc9e0b",
        "to": "0x119e0a8c499de27a2fc2a341af229802d2548d19",
        "gas": "0x10837",
        "value": "0x0",
        "input": "0x095ea7b3000000000000000000000000a229f2dbc4f4c6fc0350977e21b3346026cca95fffffffffffffffffffffffffffffffffffffffffffffffffffffffffffffffff",
        "nonce": "0xc8",
        "chainId": "0xb626"
      },
      "additionalContracts": [],
      "isFixedGasLimit": false
    },
    {
      "hash": "0xd8978f2af8cdbb5a2a829e26b01676c76c8318fd20f06d8ad7fd4cca808c1810",
      "transactionType": "CALL",
      "contractName": "BuybackEngine",
      "contractAddress": "0x6740a60418e175dd4030b2dbf54e3af5ad2c7206",
      "function": "setSinks(address,address)",
      "arguments": [
        "0x2009f80dE22555D604c4Aab4485B416d786BB061",
        "0x36FdeD5a77C709bc8D36ec9Bb81CbC1Bc2f140C9"
      ],
      "transaction": {
        "from": "0x71b3cc4f406f345c27b150036fe5e5be03fc9e0b",
        "to": "0x6740a60418e175dd4030b2dbf54e3af5ad2c7206",
        "gas": "0x18ff4",
        "value": "0x0",
        "input": "0x5e4e0ae80000000000000000000000002009f80de22555d604c4aab4485b416d786bb06100000000000000000000000036fded5a77c709bc8d36ec9bb81cbc1bc2f140c9",
        "nonce": "0xc9",
        "chainId": "0xb626"
      },
      "additionalContracts": [],
      "isFixedGasLimit": false
    },
    {
      "hash": "0xc60e7cd2c550e4e5d1f2fde7b1ee2683fca364045f9a924e0594ceae80f14266",
      "transactionType": "CALL",
      "contractName": "BuybackEngine",
      "contractAddress": "0x6740a60418e175dd4030b2dbf54e3af5ad2c7206",
      "function": "setMode(uint8)",
      "arguments": [
        "1"
      ],
      "transaction": {
        "from": "0x71b3cc4f406f345c27b150036fe5e5be03fc9e0b",
        "to": "0x6740a60418e175dd4030b2dbf54e3af5ad2c7206",
        "gas": "0x9feb",
        "value": "0x0",
        "input": "0x21175b4a0000000000000000000000000000000000000000000000000000000000000001",
        "nonce": "0xca",
        "chainId": "0xb626"
      },
      "additionalContracts": [],
      "isFixedGasLimit": false
    },
    {
      "hash": "0xdb381352ae7ba26e261d164da154d6e239a01263abe554d73d5b1febbcd49aa2",
      "transactionType": "CALL",
      "contractName": "BuybackEngine",
      "contractAddress": "0x6740a60418e175dd4030b2dbf54e3af5ad2c7206",
      "function": "setBasket((address,address,uint16,(address,address,uint24,int24,address))[])",
      "arguments": [
        "[(0x119E0A8c499dE27a2fC2a341aF229802D2548d19, 0x6bB2e06756AC4D556D7D853565B7a23289Fe1ba5, 10000, (0x0000000000000000000000000000000000000000, 0x119E0A8c499dE27a2fC2a341aF229802D2548d19, 3000, 60, 0x0000000000000000000000000000000000000000))]"
      ],
      "transaction": {
        "from": "0x71b3cc4f406f345c27b150036fe5e5be03fc9e0b",
        "to": "0x6740a60418e175dd4030b2dbf54e3af5ad2c7206",
        "gas": "0x2b81d",
        "value": "0x0",
        "input": "0x9c383b7400000000000000000000000000000000000000000000000000000000000000200000000000000000000000000000000000000000000000000000000000000001000000000000000000000000119e0a8c499de27a2fc2a341af229802d2548d190000000000000000000000006bb2e06756ac4d556d7d853565b7a23289fe1ba500000000000000000000000000000000000000000000000000000000000027100000000000000000000000000000000000000000000000000000000000000000000000000000000000000000119e0a8c499de27a2fc2a341af229802d2548d190000000000000000000000000000000000000000000000000000000000000bb8000000000000000000000000000000000000000000000000000000000000003c0000000000000000000000000000000000000000000000000000000000000000",
        "nonce": "0xcb",
        "chainId": "0xb626"
      },
      "additionalContracts": [],
      "isFixedGasLimit": false
    },
    {
      "hash": "0x4885401e937d7aee3ab8a54bedcff5834644c10a82d39a5690f7dcc6568ecae6",
      "transactionType": "CALL",
      "contractName": null,
      "contractAddress": "0x552815ef68e6eb418a3d65d0aa1043d93204f612",
      "function": "initialize((address,address,uint24,int24,address),uint160)",
      "arguments": [
        "(0x0000000000000000000000000000000000000000, 0xD8eCaEe6dc47Ce14232F9Eb9468009495a3f0E32, 3000, 60, 0xcf1bF1CEC0D7732ae1bD9BFF693C95CA16B000cc)",
        "79228162514264337593543950336"
      ],
      "transaction": {
        "from": "0x71b3cc4f406f345c27b150036fe5e5be03fc9e0b",
        "to": "0x552815ef68e6eb418a3d65d0aa1043d93204f612",
        "gas": "0x1261c",
        "value": "0x0",
        "input": "0x6276cbbe0000000000000000000000000000000000000000000000000000000000000000000000000000000000000000d8ecaee6dc47ce14232f9eb9468009495a3f0e320000000000000000000000000000000000000000000000000000000000000bb8000000000000000000000000000000000000000000000000000000000000003c000000000000000000000000cf1bf1cec0d7732ae1bd9bff693c95ca16b000cc0000000000000000000000000000000000000001000000000000000000000000",
        "nonce": "0xcc",
        "chainId": "0xb626"
      },
      "additionalContracts": [],
      "isFixedGasLimit": false
    },
    {
      "hash": "0xbca98151d65c12bae11bc2d120089f0c50360af76f6772d73b70c270c25fd4bf",
      "transactionType": "CALL",
      "contractName": "GoodAsGold",
      "contractAddress": "0xd8ecaee6dc47ce14232f9eb9468009495a3f0e32",
      "function": "approve(address,uint256)",
      "arguments": [
        "0xa229f2dbC4f4C6fc0350977e21b3346026CCA95F",
        "115792089237316195423570985008687907853269984665640564039457584007913129639935"
      ],
      "transaction": {
        "from": "0x71b3cc4f406f345c27b150036fe5e5be03fc9e0b",
        "to": "0xd8ecaee6dc47ce14232f9eb9468009495a3f0e32",
        "gas": "0x10837",
        "value": "0x0",
        "input": "0x095ea7b3000000000000000000000000a229f2dbc4f4c6fc0350977e21b3346026cca95fffffffffffffffffffffffffffffffffffffffffffffffffffffffffffffffff",
        "nonce": "0xcd",
        "chainId": "0xb626"
      },
      "additionalContracts": [],
      "isFixedGasLimit": false
    },
    {
      "hash": "0x10f52c5781265f591b82b005f07f8d4f76388832194a346931dec464ff523766",
      "transactionType": "CALL",
      "contractName": "PoolModifyLiquidityTest",
      "contractAddress": "0xa229f2dbc4f4c6fc0350977e21b3346026cca95f",
      "function": "modifyLiquidity((address,address,uint24,int24,address),(int24,int24,int256,bytes32),bytes)",
      "arguments": [
        "(0x0000000000000000000000000000000000000000, 0xD8eCaEe6dc47Ce14232F9Eb9468009495a3f0E32, 3000, 60, 0xcf1bF1CEC0D7732ae1bD9BFF693C95CA16B000cc)",
        "(-887220, 887220, 1500000000000000, 0x0000000000000000000000000000000000000000000000000000000000000000)",
        "0x"
      ],
      "transaction": {
        "from": "0x71b3cc4f406f345c27b150036fe5e5be03fc9e0b",
        "to": "0xa229f2dbc4f4c6fc0350977e21b3346026cca95f",
        "gas": "0x68da7",
        "value": "0x5987443857000",
        "input": "0x5a6bcfda0000000000000000000000000000000000000000000000000000000000000000000000000000000000000000d8ecaee6dc47ce14232f9eb9468009495a3f0e320000000000000000000000000000000000000000000000000000000000000bb8000000000000000000000000000000000000000000000000000000000000003c000000000000000000000000cf1bf1cec0d7732ae1bd9bff693c95ca16b000ccfffffffffffffffffffffffffffffffffffffffffffffffffffffffffff2764c00000000000000000000000000000000000000000000000000000000000d89b40000000000000000000000000000000000000000000000000005543df729c000000000000000000000000000000000000000000000000000000000000000000000000000000000000000000000000000000000000000000000000000000001400000000000000000000000000000000000000000000000000000000000000000",
        "nonce": "0xce",
        "chainId": "0xb626"
      },
      "additionalContracts": [],
      "isFixedGasLimit": false
    },
    {
      "hash": "0x1fd7260c96695a81f2cfa72fc3af96ac225376289a54ec48e18efd1502f0c46b",
      "transactionType": "CALL",
      "contractName": "BuybackEngine",
      "contractAddress": "0x6740a60418e175dd4030b2dbf54e3af5ad2c7206",
      "function": "setTtpPoolKey((address,address,uint24,int24,address))",
      "arguments": [
        "(0x0000000000000000000000000000000000000000, 0xD8eCaEe6dc47Ce14232F9Eb9468009495a3f0E32, 3000, 60, 0xcf1bF1CEC0D7732ae1bD9BFF693C95CA16B000cc)"
      ],
      "transaction": {
        "from": "0x71b3cc4f406f345c27b150036fe5e5be03fc9e0b",
        "to": "0x6740a60418e175dd4030b2dbf54e3af5ad2c7206",
        "gas": "0x19e96",
        "value": "0x0",
        "input": "0xe943513a0000000000000000000000000000000000000000000000000000000000000000000000000000000000000000d8ecaee6dc47ce14232f9eb9468009495a3f0e320000000000000000000000000000000000000000000000000000000000000bb8000000000000000000000000000000000000000000000000000000000000003c000000000000000000000000cf1bf1cec0d7732ae1bd9bff693c95ca16b000cc",
        "nonce": "0xcf",
        "chainId": "0xb626"
      },
      "additionalContracts": [],
      "isFixedGasLimit": false
    },
    {
      "hash": "0x562ccd120d0b1682b82f312327c2e5167ff5b7d109fb3f694531793ff30fae03",
      "transactionType": "CALL",
      "contractName": null,
      "contractAddress": "0x552815ef68e6eb418a3d65d0aa1043d93204f612",
      "function": "initialize((address,address,uint24,int24,address),uint160)",
      "arguments": [
        "(0x0000000000000000000000000000000000000000, 0x119E0A8c499dE27a2fC2a341aF229802D2548d19, 3000, 60, 0x0000000000000000000000000000000000000000)",
        "79228162514264337593543950336"
      ],
      "transaction": {
        "from": "0x71b3cc4f406f345c27b150036fe5e5be03fc9e0b",
        "to": "0x552815ef68e6eb418a3d65d0aa1043d93204f612",
        "gas": "0x114be",
        "value": "0x0",
        "input": "0x6276cbbe0000000000000000000000000000000000000000000000000000000000000000000000000000000000000000119e0a8c499de27a2fc2a341af229802d2548d190000000000000000000000000000000000000000000000000000000000000bb8000000000000000000000000000000000000000000000000000000000000003c00000000000000000000000000000000000000000000000000000000000000000000000000000000000000000000000000000001000000000000000000000000",
        "nonce": "0xd0",
        "chainId": "0xb626"
      },
      "additionalContracts": [],
      "isFixedGasLimit": false
    },
    {
      "hash": "0xd407d526e211cbc8f20e564a12da2338fcb84002d59647b9cd0735d4f4813779",
      "transactionType": "CALL",
      "contractName": "PoolModifyLiquidityTest",
      "contractAddress": "0xa229f2dbc4f4c6fc0350977e21b3346026cca95f",
      "function": "modifyLiquidity((address,address,uint24,int24,address),(int24,int24,int256,bytes32),bytes)",
      "arguments": [
        "(0x0000000000000000000000000000000000000000, 0x119E0A8c499dE27a2fC2a341aF229802D2548d19, 3000, 60, 0x0000000000000000000000000000000000000000)",
        "(-887220, 887220, 800000000000000, 0x0000000000000000000000000000000000000000000000000000000000000000)",
        "0x"
      ],
      "transaction": {
        "from": "0x71b3cc4f406f345c27b150036fe5e5be03fc9e0b",
        "to": "0xa229f2dbc4f4c6fc0350977e21b3346026cca95f",
        "gas": "0x5a83b",
        "value": "0x2e625ce230000",
        "input": "0x5a6bcfda0000000000000000000000000000000000000000000000000000000000000000000000000000000000000000119e0a8c499de27a2fc2a341af229802d2548d190000000000000000000000000000000000000000000000000000000000000bb8000000000000000000000000000000000000000000000000000000000000003c0000000000000000000000000000000000000000000000000000000000000000fffffffffffffffffffffffffffffffffffffffffffffffffffffffffff2764c00000000000000000000000000000000000000000000000000000000000d89b40000000000000000000000000000000000000000000000000002d79883d20000000000000000000000000000000000000000000000000000000000000000000000000000000000000000000000000000000000000000000000000000000001400000000000000000000000000000000000000000000000000000000000000000",
        "nonce": "0xd1",
        "chainId": "0xb626"
      },
      "additionalContracts": [],
      "isFixedGasLimit": false
    },
    {
      "hash": "0xe3a224db92f131908f01398b4a9c33d13b8a85b19621ba0ca44344e0179aeee4",
      "transactionType": "CALL",
      "contractName": "GoodAsGold",
      "contractAddress": "0xd8ecaee6dc47ce14232f9eb9468009495a3f0e32",
      "function": "excludeFromDividends(address)",
      "arguments": [
        "0x552815eF68E6eb418A3d65D0AA1043d93204F612"
      ],
      "transaction": {
        "from": "0x71b3cc4f406f345c27b150036fe5e5be03fc9e0b",
        "to": "0xd8ecaee6dc47ce14232f9eb9468009495a3f0e32",
        "gas": "0x1368e",
        "value": "0x0",
        "input": "0x31e79db0000000000000000000000000552815ef68e6eb418a3d65d0aa1043d93204f612",
        "nonce": "0xd2",
        "chainId": "0xb626"
      },
      "additionalContracts": [],
      "isFixedGasLimit": false
    },
    {
      "hash": "0x8a5396a32e70ab50fef0689ff1edd6f963a8c8261caa4d97f74962aaaabdbe49",
      "transactionType": "CALL",
      "contractName": "GoodAsGold",
      "contractAddress": "0xd8ecaee6dc47ce14232f9eb9468009495a3f0e32",
      "function": "excludeFromDividends(address)",
      "arguments": [
        "0xDb71F8831dAb638E05986D9C4F064546BF184462"
      ],
      "transaction": {
        "from": "0x71b3cc4f406f345c27b150036fe5e5be03fc9e0b",
        "to": "0xd8ecaee6dc47ce14232f9eb9468009495a3f0e32",
        "gas": "0x10c08",
        "value": "0x0",
        "input": "0x31e79db0000000000000000000000000db71f8831dab638e05986d9c4f064546bf184462",
        "nonce": "0xd3",
        "chainId": "0xb626"
      },
      "additionalContracts": [],
      "isFixedGasLimit": false
    },
    {
      "hash": "0x83b3ad47cc7d097d847a8c9112684d1107ce74eb40f8f045a6e61edf8091cd3c",
      "transactionType": "CALL",
      "contractName": "GoodAsGold",
      "contractAddress": "0xd8ecaee6dc47ce14232f9eb9468009495a3f0e32",
      "function": "excludeFromDividends(address)",
      "arguments": [
        "0x36FdeD5a77C709bc8D36ec9Bb81CbC1Bc2f140C9"
      ],
      "transaction": {
        "from": "0x71b3cc4f406f345c27b150036fe5e5be03fc9e0b",
        "to": "0xd8ecaee6dc47ce14232f9eb9468009495a3f0e32",
        "gas": "0x10c08",
        "value": "0x0",
        "input": "0x31e79db000000000000000000000000036fded5a77c709bc8d36ec9bb81cbc1bc2f140c9",
        "nonce": "0xd4",
        "chainId": "0xb626"
      },
      "additionalContracts": [],
      "isFixedGasLimit": false
    },
    {
      "hash": "0xed553b38828933f88ff71e6d282938f44428fe0a3d5e2975d40c9dd2ab0f31a4",
      "transactionType": "CALL",
      "contractName": "GoodAsGold",
      "contractAddress": "0xd8ecaee6dc47ce14232f9eb9468009495a3f0e32",
      "function": "excludeFromDividends(address)",
      "arguments": [
        "0x000000000000000000000000000000000000dEaD"
      ],
      "transaction": {
        "from": "0x71b3cc4f406f345c27b150036fe5e5be03fc9e0b",
        "to": "0xd8ecaee6dc47ce14232f9eb9468009495a3f0e32",
        "gas": "0x10ade",
        "value": "0x0",
        "input": "0x31e79db0000000000000000000000000000000000000000000000000000000000000dead",
        "nonce": "0xd5",
        "chainId": "0xb626"
      },
      "additionalContracts": [],
      "isFixedGasLimit": false
    },
    {
      "hash": "0x14683973619393cd14eaf3a7828fa84f4b7e428a65703abab86a1c2b702e80fb",
      "transactionType": "CALL",
      "contractName": "GoodAsGold",
      "contractAddress": "0xd8ecaee6dc47ce14232f9eb9468009495a3f0e32",
      "function": "excludeFromDividends(address)",
      "arguments": [
        "0xe4e7d677e23544e12A0100b29E146b9164c831A2"
      ],
      "transaction": {
        "from": "0x71b3cc4f406f345c27b150036fe5e5be03fc9e0b",
        "to": "0xd8ecaee6dc47ce14232f9eb9468009495a3f0e32",
        "gas": "0x11bbc",
        "value": "0x0",
        "input": "0x31e79db0000000000000000000000000e4e7d677e23544e12a0100b29e146b9164c831a2",
        "nonce": "0xd6",
        "chainId": "0xb626"
      },
      "additionalContracts": [],
      "isFixedGasLimit": false
    }
  ],
  "receipts": [
    {
      "status": "0x1",
      "cumulativeGasUsed": "0x182ead",
      "logs": [],
      "logsBloom": "0x00000000000000000000000000000000000000000000000000000000000000000000000000000000000000000000000000000000000000000000000000000000000000000000000000000000000000000000000000000000000000000000000000000000000000000000000000000000000000000000000000000000000000000000000000000000000000000000000000000000000000000000000000000000000000000000000000000000000000000000000000000000000000000000000000000000000000000000000000000000000000000000000000000000000000000000000000000000000000000000000000000000000000000000000000000000",
      "type": "0x2",
      "transactionHash": "0x1287eebb58f2ed28ae2fb467c30af462fca98d13c6656c2104ca491dee4d783a",
      "transactionIndex": "0x6",
      "blockHash": "0x9e8f697702a52fd868080676e6676154cc401fd4a176543a2b0b25709395f2c3",
      "blockNumber": "0x56fb89d",
      "gasUsed": "0xa5724",
      "effectiveGasPrice": "0x989680",
      "from": "0x71b3cc4f406f345c27b150036fe5e5be03fc9e0b",
      "to": null,
      "contractAddress": "0x119e0a8c499de27a2fc2a341af229802d2548d19",
      "gasUsedForL1": "0x148de",
      "l1BlockNumber": "0xac60ff"
    },
    {
      "status": "0x1",
      "cumulativeGasUsed": "0x1be15f",
      "logs": [],
      "logsBloom": "0x00000000000000000000000000000000000000000000000000000000000000000000000000000000000000000000000000000000000000000000000000000000000000000000000000000000000000000000000000000000000000000000000000000000000000000000000000000000000000000000000000000000000000000000000000000000000000000000000000000000000000000000000000000000000000000000000000000000000000000000000000000000000000000000000000000000000000000000000000000000000000000000000000000000000000000000000000000000000000000000000000000000000000000000000000000000",
      "type": "0x2",
      "transactionHash": "0x172443babb903dee0a7879839d27ec227e02b7c3e0a042c4a9d27704ce5aff73",
      "transactionIndex": "0x7",
      "blockHash": "0x9e8f697702a52fd868080676e6676154cc401fd4a176543a2b0b25709395f2c3",
      "blockNumber": "0x56fb89d",
      "gasUsed": "0x3b2b2",
      "effectiveGasPrice": "0x989680",
      "from": "0x71b3cc4f406f345c27b150036fe5e5be03fc9e0b",
      "to": null,
      "contractAddress": "0x6bb2e06756ac4d556d7d853565b7a23289fe1ba5",
      "gasUsedForL1": "0x6293",
      "l1BlockNumber": "0xac60ff"
    },
    {
      "status": "0x1",
      "cumulativeGasUsed": "0xfdb6b",
      "logs": [
        {
          "address": "0xd8ecaee6dc47ce14232f9eb9468009495a3f0e32",
          "topics": [
            "0xddf252ad1be2c89b69c2b068fc378daa952ba7f163c4a11628f55a4df523b3ef",
            "0x0000000000000000000000000000000000000000000000000000000000000000",
            "0x00000000000000000000000071b3cc4f406f345c27b150036fe5e5be03fc9e0b"
          ],
          "data": "0x0000000000000000000000000000000000000000033b2e3c9fd0803ce8000000",
          "blockHash": "0x225ff44105e4b49a5fb2d57d9779c3c66a0ffffc67d1ae9028be0151816b628d",
          "blockNumber": "0x56fb89e",
          "blockTimestamp": "0x6a5b1c85",
          "transactionHash": "0x83b3ad47cc7d097d847a8c9112684d1107ce74eb40f8f045a6e61edf8091cd3c",
          "transactionIndex": "0x1",
          "logIndex": "0x0",
          "removed": false
        }
      ],
      "logsBloom": "0x00000000000000000000000000000000000000000000000100000000000000000000000000000000000000000000000000000000000000000000000000000000000000000000000000000008000000000000000000000000000000000000040000000000020000000000000000000800000000000000000000000010000000000000000000000000000000000000000000004000000004000000000000000000000000000000000000000004000000000000000000000000000000000000000000000002000000000000000000000000000000000000000000000000000020000400000000000000000000000000000000000000000000000000000000000000",
      "type": "0x2",
      "transactionHash": "0x83b3ad47cc7d097d847a8c9112684d1107ce74eb40f8f045a6e61edf8091cd3c",
      "transactionIndex": "0x1",
      "blockHash": "0x225ff44105e4b49a5fb2d57d9779c3c66a0ffffc67d1ae9028be0151816b628d",
      "blockNumber": "0x56fb89e",
      "gasUsed": "0xfdb6b",
      "effectiveGasPrice": "0x989680",
      "from": "0x71b3cc4f406f345c27b150036fe5e5be03fc9e0b",
      "to": null,
      "contractAddress": "0xd8ecaee6dc47ce14232f9eb9468009495a3f0e32",
      "gasUsedForL1": "0x1a414",
      "l1BlockNumber": "0xac60ff"
    },
    {
      "status": "0x1",
      "cumulativeGasUsed": "0x16b9ce",
      "logs": [],
      "logsBloom": "0x00000000000000000000000000000000000000000000000000000000000000000000000000000000000000000000000000000000000000000000000000000000000000000000000000000000000000000000000000000000000000000000000000000000000000000000000000000000000000000000000000000000000000000000000000000000000000000000000000000000000000000000000000000000000000000000000000000000000000000000000000000000000000000000000000000000000000000000000000000000000000000000000000000000000000000000000000000000000000000000000000000000000000000000000000000000",
      "type": "0x2",
      "transactionHash": "0x1fd7260c96695a81f2cfa72fc3af96ac225376289a54ec48e18efd1502f0c46b",
      "transactionIndex": "0x2",
      "blockHash": "0x225ff44105e4b49a5fb2d57d9779c3c66a0ffffc67d1ae9028be0151816b628d",
      "blockNumber": "0x56fb89e",
      "gasUsed": "0x6de63",
      "effectiveGasPrice": "0x989680",
      "from": "0x71b3cc4f406f345c27b150036fe5e5be03fc9e0b",
      "to": null,
      "contractAddress": "0xe4e7d677e23544e12a0100b29e146b9164c831a2",
      "gasUsedForL1": "0xd639",
      "l1BlockNumber": "0xac60ff"
    },
    {
      "status": "0x1",
      "cumulativeGasUsed": "0x22fcde",
      "logs": [],
      "logsBloom": "0x00000000000000000000000000000000000000000000000000000000000000000000000000000000000000000000000000000000000000000000000000000000000000000000000000000000000000000000000000000000000000000000000000000000000000000000000000000000000000000000000000000000000000000000000000000000000000000000000000000000000000000000000000000000000000000000000000000000000000000000000000000000000000000000000000000000000000000000000000000000000000000000000000000000000000000000000000000000000000000000000000000000000000000000000000000000",
      "type": "0x2",
      "transactionHash": "0x4885401e937d7aee3ab8a54bedcff5834644c10a82d39a5690f7dcc6568ecae6",
      "transactionIndex": "0x3",
      "blockHash": "0x225ff44105e4b49a5fb2d57d9779c3c66a0ffffc67d1ae9028be0151816b628d",
      "blockNumber": "0x56fb89e",
      "gasUsed": "0xc4310",
      "effectiveGasPrice": "0x989680",
      "from": "0x71b3cc4f406f345c27b150036fe5e5be03fc9e0b",
      "to": "0x4e59b44847b379578588920ca78fbf26c0b4956c",
      "contractAddress": null,
      "gasUsedForL1": "0x151bc",
      "l1BlockNumber": "0xac60ff"
    },
    {
      "status": "0x1",
      "cumulativeGasUsed": "0x3adba6",
      "logs": [],
      "logsBloom": "0x00000000000000000000000000000000000000000000000000000000000000000000000000000000000000000000000000000000000000000000000000000000000000000000000000000000000000000000000000000000000000000000000000000000000000000000000000000000000000000000000000000000000000000000000000000000000000000000000000000000000000000000000000000000000000000000000000000000000000000000000000000000000000000000000000000000000000000000000000000000000000000000000000000000000000000000000000000000000000000000000000000000000000000000000000000000",
      "type": "0x2",
      "transactionHash": "0x0889a4f8924b00abff2b33ec4a1f3f0e4a6b90f59ee9ccdc5ba42d7df5ef5cc2",
      "transactionIndex": "0x4",
      "blockHash": "0x225ff44105e4b49a5fb2d57d9779c3c66a0ffffc67d1ae9028be0151816b628d",
      "blockNumber": "0x56fb89e",
      "gasUsed": "0x17dec8",
      "effectiveGasPrice": "0x989680",
      "from": "0x71b3cc4f406f345c27b150036fe5e5be03fc9e0b",
      "to": null,
      "contractAddress": "0x6740a60418e175dd4030b2dbf54e3af5ad2c7206",
      "gasUsedForL1": "0x29717",
      "l1BlockNumber": "0xac60ff"
    },
    {
      "status": "0x1",
      "cumulativeGasUsed": "0x3e9f2f",
      "logs": [],
      "logsBloom": "0x00000000000000000000000000000000000000000000000000000000000000000000000000000000000000000000000000000000000000000000000000000000000000000000000000000000000000000000000000000000000000000000000000000000000000000000000000000000000000000000000000000000000000000000000000000000000000000000000000000000000000000000000000000000000000000000000000000000000000000000000000000000000000000000000000000000000000000000000000000000000000000000000000000000000000000000000000000000000000000000000000000000000000000000000000000000",
      "type": "0x2",
      "transactionHash": "0x562ccd120d0b1682b82f312327c2e5167ff5b7d109fb3f694531793ff30fae03",
      "transactionIndex": "0x5",
      "blockHash": "0x225ff44105e4b49a5fb2d57d9779c3c66a0ffffc67d1ae9028be0151816b628d",
      "blockNumber": "0x56fb89e",
      "gasUsed": "0x3c389",
      "effectiveGasPrice": "0x989680",
      "from": "0x71b3cc4f406f345c27b150036fe5e5be03fc9e0b",
      "to": null,
      "contractAddress": "0x2009f80de22555d604c4aab4485b416d786bb061",
      "gasUsedForL1": "0x88bc",
      "l1BlockNumber": "0xac60ff"
    },
    {
      "status": "0x1",
      "cumulativeGasUsed": "0x3f77bb",
      "logs": [
        {
          "address": "0xe4e7d677e23544e12a0100b29e146b9164c831a2",
          "topics": [
            "0x19fef6046150baa445c8f44d75e29317c0fa4c6341a6c8444b3ec4cc48d1e1ce",
            "0x0000000000000000000000006740a60418e175dd4030b2dbf54e3af5ad2c7206"
          ],
          "data": "0x0000000000000000000000000000000000000000000000000000000000000001",
          "blockHash": "0x225ff44105e4b49a5fb2d57d9779c3c66a0ffffc67d1ae9028be0151816b628d",
          "blockNumber": "0x56fb89e",
          "blockTimestamp": "0x6a5b1c85",
          "transactionHash": "0xdb381352ae7ba26e261d164da154d6e239a01263abe554d73d5b1febbcd49aa2",
          "transactionIndex": "0x6",
          "logIndex": "0x1",
          "removed": false
        }
      ],
      "logsBloom": "0x00000000000000000000000000000000000000000000000000000000000000004000000000000000000000000000000000000000080000000000000000000000000000800000000000000000000000000000000000000000000000000000000000000000000000000000000000000000000000000000000000000000004000000000000000000000000000000000000000000000000000000000000000000000000000000000000000000000000000000000000000000080000000000000000000000000000000000000000000010000000000000000000000040000000000000000000000000000000000000000000000000080000000100000000000000000",
      "type": "0x2",
      "transactionHash": "0xdb381352ae7ba26e261d164da154d6e239a01263abe554d73d5b1febbcd49aa2",
      "transactionIndex": "0x6",
      "blockHash": "0x225ff44105e4b49a5fb2d57d9779c3c66a0ffffc67d1ae9028be0151816b628d",
      "blockNumber": "0x56fb89e",
      "gasUsed": "0xd88c",
      "effectiveGasPrice": "0x989680",
      "from": "0x71b3cc4f406f345c27b150036fe5e5be03fc9e0b",
      "to": "0xe4e7d677e23544e12a0100b29e146b9164c831a2",
      "contractAddress": null,
      "gasUsedForL1": "0x1e75",
      "l1BlockNumber": "0xac60ff"
    },
    {
      "status": "0x1",
      "cumulativeGasUsed": "0x512868",
      "logs": [],
      "logsBloom": "0x00000000000000000000000000000000000000000000000000000000000000000000000000000000000000000000000000000000000000000000000000000000000000000000000000000000000000000000000000000000000000000000000000000000000000000000000000000000000000000000000000000000000000000000000000000000000000000000000000000000000000000000000000000000000000000000000000000000000000000000000000000000000000000000000000000000000000000000000000000000000000000000000000000000000000000000000000000000000000000000000000000000000000000000000000000000",
      "type": "0x2",
      "transactionHash": "0xd407d526e211cbc8f20e564a12da2338fcb84002d59647b9cd0735d4f4813779",
      "transactionIndex": "0x7",
      "blockHash": "0x225ff44105e4b49a5fb2d57d9779c3c66a0ffffc67d1ae9028be0151816b628d",
      "blockNumber": "0x56fb89e",
      "gasUsed": "0x11b0ad",
      "effectiveGasPrice": "0x989680",
      "from": "0x71b3cc4f406f345c27b150036fe5e5be03fc9e0b",
      "to": null,
      "contractAddress": "0xa229f2dbc4f4c6fc0350977e21b3346026cca95f",
      "gasUsedForL1": "0x1e706",
      "l1BlockNumber": "0xac60ff"
    },
    {
      "status": "0x1",
      "cumulativeGasUsed": "0x685cf7",
      "logs": [],
      "logsBloom": "0x00000000000000000000000000000000000000000000000000000000000000000000000000000000000000000000000000000000000000000000000000000000000000000000000000000000000000000000000000000000000000000000000000000000000000000000000000000000000000000000000000000000000000000000000000000000000000000000000000000000000000000000000000000000000000000000000000000000000000000000000000000000000000000000000000000000000000000000000000000000000000000000000000000000000000000000000000000000000000000000000000000000000000000000000000000000",
      "type": "0x2",
      "transactionHash": "0x8a5396a32e70ab50fef0689ff1edd6f963a8c8261caa4d97f74962aaaabdbe49",
      "transactionIndex": "0x8",
      "blockHash": "0x225ff44105e4b49a5fb2d57d9779c3c66a0ffffc67d1ae9028be0151816b628d",
      "blockNumber": "0x56fb89e",
      "gasUsed": "0x17348f",
      "effectiveGasPrice": "0x989680",
      "from": "0x71b3cc4f406f345c27b150036fe5e5be03fc9e0b",
      "to": null,
      "contractAddress": "0xdb71f8831dab638e05986d9c4f064546bf184462",
      "gasUsedForL1": "0x2b3e0",
      "l1BlockNumber": "0xac60ff"
    },
    {
      "status": "0x1",
      "cumulativeGasUsed": "0x6eb335",
      "logs": [],
      "logsBloom": "0x00000000000000000000000000000000000000000000000000000000000000000000000000000000000000000000000000000000000000000000000000000000000000000000000000000000000000000000000000000000000000000000000000000000000000000000000000000000000000000000000000000000000000000000000000000000000000000000000000000000000000000000000000000000000000000000000000000000000000000000000000000000000000000000000000000000000000000000000000000000000000000000000000000000000000000000000000000000000000000000000000000000000000000000000000000000",
      "type": "0x2",
      "transactionHash": "0x14683973619393cd14eaf3a7828fa84f4b7e428a65703abab86a1c2b702e80fb",
      "transactionIndex": "0x9",
      "blockHash": "0x225ff44105e4b49a5fb2d57d9779c3c66a0ffffc67d1ae9028be0151816b628d",
      "blockNumber": "0x56fb89e",
      "gasUsed": "0x6563e",
      "effectiveGasPrice": "0x989680",
      "from": "0x71b3cc4f406f345c27b150036fe5e5be03fc9e0b",
      "to": null,
      "contractAddress": "0x36fded5a77c709bc8d36ec9bb81cbc1bc2f140c9",
      "gasUsedForL1": "0xd790",
      "l1BlockNumber": "0xac60ff"
    },
    {
      "status": "0x1",
      "cumulativeGasUsed": "0x6f8087",
      "logs": [],
      "logsBloom": "0x00000000000000000000000000000000000000000000000000000000000000000000000000000000000000000000000000000000000000000000000000000000000000000000000000000000000000000000000000000000000000000000000000000000000000000000000000000000000000000000000000000000000000000000000000000000000000000000000000000000000000000000000000000000000000000000000000000000000000000000000000000000000000000000000000000000000000000000000000000000000000000000000000000000000000000000000000000000000000000000000000000000000000000000000000000000",
      "type": "0x2",
      "transactionHash": "0x62358a6dac1653ca69dc1450168b9a3dfef74c0ad21def4774c68a1056ea064d",
      "transactionIndex": "0xa",
      "blockHash": "0x225ff44105e4b49a5fb2d57d9779c3c66a0ffffc67d1ae9028be0151816b628d",
      "blockNumber": "0x56fb89e",
      "gasUsed": "0xcd52",
      "effectiveGasPrice": "0x989680",
      "from": "0x71b3cc4f406f345c27b150036fe5e5be03fc9e0b",
      "to": "0xd8ecaee6dc47ce14232f9eb9468009495a3f0e32",
      "contractAddress": null,
      "gasUsedForL1": "0x18c5",
      "l1BlockNumber": "0xac60ff"
    },
    {
      "status": "0x1",
      "cumulativeGasUsed": "0x70b1a1",
      "logs": [
        {
          "address": "0x119e0a8c499de27a2fc2a341af229802d2548d19",
          "topics": [
            "0xddf252ad1be2c89b69c2b068fc378daa952ba7f163c4a11628f55a4df523b3ef",
            "0x0000000000000000000000000000000000000000000000000000000000000000",
            "0x00000000000000000000000071b3cc4f406f345c27b150036fe5e5be03fc9e0b"
          ],
          "data": "0x00000000000000000000000000000000000000000000d3c21bcecceda1000000",
          "blockHash": "0x225ff44105e4b49a5fb2d57d9779c3c66a0ffffc67d1ae9028be0151816b628d",
          "blockNumber": "0x56fb89e",
          "blockTimestamp": "0x6a5b1c85",
          "transactionHash": "0x5e904536beae72cac3a76a5d3e8f18e2f093f7bfd401caec6170c3aa62018c66",
          "transactionIndex": "0xb",
          "logIndex": "0x2",
          "removed": false
        }
      ],
      "logsBloom": "0x00000000000000000000000000000000400000000000000000000000000000000000000000000000000000000000000000000000000000000000000000000000000000000000000000000008000000000000000000000000000000000000040000000000020000000000000000000800000000000000000000000010000000000000000000000002000000000000000000004000000004000000000000000000000000000000000000000000000800000000000000000000000000000000000000000002000000000000000000000000000000000000000000000000000020000000000000000000000000000000000000000000000000000000000000000000",
      "type": "0x2",
      "transactionHash": "0x5e904536beae72cac3a76a5d3e8f18e2f093f7bfd401caec6170c3aa62018c66",
      "transactionIndex": "0xb",
      "blockHash": "0x225ff44105e4b49a5fb2d57d9779c3c66a0ffffc67d1ae9028be0151816b628d",
      "blockNumber": "0x56fb89e",
      "gasUsed": "0x1311a",
      "effectiveGasPrice": "0x989680",
      "from": "0x71b3cc4f406f345c27b150036fe5e5be03fc9e0b",
      "to": "0x119e0a8c499de27a2fc2a341af229802d2548d19",
      "contractAddress": null,
      "gasUsedForL1": "0x1e75",
      "l1BlockNumber": "0xac60ff"
    },
    {
      "status": "0x1",
      "cumulativeGasUsed": "0x7184bf",
      "logs": [
        {
          "address": "0x119e0a8c499de27a2fc2a341af229802d2548d19",
          "topics": [
            "0x8c5be1e5ebec7d5bd14f71427d1e84f3dd0314c0f7b2291e5b200ac8c7c3b925",
            "0x00000000000000000000000071b3cc4f406f345c27b150036fe5e5be03fc9e0b",
            "0x000000000000000000000000a229f2dbc4f4c6fc0350977e21b3346026cca95f"
          ],
          "data": "0xffffffffffffffffffffffffffffffffffffffffffffffffffffffffffffffff",
          "blockHash": "0x225ff44105e4b49a5fb2d57d9779c3c66a0ffffc67d1ae9028be0151816b628d",
          "blockNumber": "0x56fb89e",
          "blockTimestamp": "0x6a5b1c85",
          "transactionHash": "0xd8978f2af8cdbb5a2a829e26b01676c76c8318fd20f06d8ad7fd4cca808c1810",
          "transactionIndex": "0xc",
          "logIndex": "0x3",
          "removed": false
        }
      ],
      "logsBloom": "0x00000000000000000000000000000000400000000000000000000000000000000000000000000000000000000000000000000000000000000000000000200000000000000000000000000000000000000000000000000000000000000000040000000000000000000000200000000000000000000000000000000000000000000000000000000002000000000000000000004000000004000000000000000000020000000000000000000000000800000000000000004000000000000000000000000000000000000000000000000000000000000000000000000000002000000010000000000000000000000000000000000000000000000000000000000000",
      "type": "0x2",
      "transactionHash": "0xd8978f2af8cdbb5a2a829e26b01676c76c8318fd20f06d8ad7fd4cca808c1810",
      "transactionIndex": "0xc",
      "blockHash": "0x225ff44105e4b49a5fb2d57d9779c3c66a0ffffc67d1ae9028be0151816b628d",
      "blockNumber": "0x56fb89e",
      "gasUsed": "0xd31e",
      "effectiveGasPrice": "0x989680",
      "from": "0x71b3cc4f406f345c27b150036fe5e5be03fc9e0b",
      "to": "0x119e0a8c499de27a2fc2a341af229802d2548d19",
      "contractAddress": null,
      "gasUsedForL1": "0x1e75",
      "l1BlockNumber": "0xac60ff"
    },
    {
      "status": "0x1",
      "cumulativeGasUsed": "0x72b4ad",
      "logs": [
        {
          "address": "0x6740a60418e175dd4030b2dbf54e3af5ad2c7206",
          "topics": [
            "0x7f55069d78ee5bc40caa8c20b206f2c66a5e0376942d46eee3a7423694c8bbd3"
          ],
          "data": "0x0000000000000000000000002009f80de22555d604c4aab4485b416d786bb06100000000000000000000000036fded5a77c709bc8d36ec9bb81cbc1bc2f140c9",
          "blockHash": "0x225ff44105e4b49a5fb2d57d9779c3c66a0ffffc67d1ae9028be0151816b628d",
          "blockNumber": "0x56fb89e",
          "blockTimestamp": "0x6a5b1c85",
          "transactionHash": "0x3d4da3b5aff0d55faa365e127a817197ea043f9b58f6e7d3a5abaeacaedf939f",
          "transactionIndex": "0xd",
          "logIndex": "0x4",
          "removed": false
        }
      ],
      "logsBloom": "0x00000000000000000000000000000000000000000000000000000000000000000000000000000000000000000000080000000000000000000000000000000000000000000000000000000000000000000000000000000000000000000000000000000400000020000000000000000000000000000000000000000000004000000000000000000000000000000000000000000000000000000000000000000000000000000000000000000000000000000000000000000000000000000000000000000000000000000000000004000000000000000000000000000000000000000000000000000000000000200000000000000000000000000000000000000000",
      "type": "0x2",
      "transactionHash": "0x3d4da3b5aff0d55faa365e127a817197ea043f9b58f6e7d3a5abaeacaedf939f",
      "transactionIndex": "0xd",
      "blockHash": "0x225ff44105e4b49a5fb2d57d9779c3c66a0ffffc67d1ae9028be0151816b628d",
      "blockNumber": "0x56fb89e",
      "gasUsed": "0x12fee",
      "effectiveGasPrice": "0x989680",
      "from": "0x71b3cc4f406f345c27b150036fe5e5be03fc9e0b",
      "to": "0x6740a60418e175dd4030b2dbf54e3af5ad2c7206",
      "contractAddress": null,
      "gasUsedForL1": "0x1e75",
      "l1BlockNumber": "0xac60ff"
    },
    {
      "status": "0x1",
      "cumulativeGasUsed": "0x73413a",
      "logs": [
        {
          "address": "0x6740a60418e175dd4030b2dbf54e3af5ad2c7206",
          "topics": [
            "0x3999b8ac9be57cf2fb4f2508733bf803394c77fbeae3203cf5593067125e7c9c"
          ],
          "data": "0x0000000000000000000000000000000000000000000000000000000000000001",
          "blockHash": "0x225ff44105e4b49a5fb2d57d9779c3c66a0ffffc67d1ae9028be0151816b628d",
          "blockNumber": "0x56fb89e",
          "blockTimestamp": "0x6a5b1c85",
          "transactionHash": "0x10f52c5781265f591b82b005f07f8d4f76388832194a346931dec464ff523766",
          "transactionIndex": "0xe",
          "logIndex": "0x5",
          "removed": false
        }
      ],
      "logsBloom": "0x00000000000000000000000000000000000000002000000000000000000000000000000000000000000000000000000000000000000000000000000000000000000000000000000000000000000000000000000000000000000000000000000000000400000000000000000000000000000000000000000000080000004000000000000000000000000000000000000000000000000000000000000000000000000000000000000000000000000000000000000000000000000000000000800000000000000000000000000004000000000000000000000000000000000000000000000000000000000000000000000000000000000000000000000000000000",
      "type": "0x2",
      "transactionHash": "0x10f52c5781265f591b82b005f07f8d4f76388832194a346931dec464ff523766",
      "transactionIndex": "0xe",
      "blockHash": "0x225ff44105e4b49a5fb2d57d9779c3c66a0ffffc67d1ae9028be0151816b628d",
      "blockNumber": "0x56fb89e",
      "gasUsed": "0x8c8d",
      "effectiveGasPrice": "0x989680",
      "from": "0x71b3cc4f406f345c27b150036fe5e5be03fc9e0b",
      "to": "0x6740a60418e175dd4030b2dbf54e3af5ad2c7206",
      "contractAddress": null,
      "gasUsedForL1": "0x18c5",
      "l1BlockNumber": "0xac60ff"
    },
    {
      "status": "0x1",
      "cumulativeGasUsed": "0x754ee8",
      "logs": [
        {
          "address": "0x6740a60418e175dd4030b2dbf54e3af5ad2c7206",
          "topics": [
            "0x2001bce0097252733231d87b0ffd186c12d4d9c6faeaf97f812743b4c8c43d7c"
          ],
          "data": "0x0000000000000000000000000000000000000000000000000000000000000001",
          "blockHash": "0x225ff44105e4b49a5fb2d57d9779c3c66a0ffffc67d1ae9028be0151816b628d",
          "blockNumber": "0x56fb89e",
          "blockTimestamp": "0x6a5b1c85",
          "transactionHash": "0xbb37861d1c25c18502327a250ba45332e173d6d58215014f5520b513281ae9e8",
          "transactionIndex": "0xf",
          "logIndex": "0x6",
          "removed": false
        }
      ],
      "logsBloom": "0x00000000000000000000000000000000000000000000000000000000000000000000000000000000000000000000000000000000000000000000000200000000000000000000000000000000000000000000000000000800000000000000000000000400000000000000000000000000000000000000000000000000004000000000000000000000000000000000000000000000000000000000000000000000000000000000000000000000000000000000000000000000000000000000000000000000000000000000000004000000000000000000000000000000000000000000000000000000000000000000000000000000000000000000000000000040",
      "type": "0x2",
      "transactionHash": "0xbb37861d1c25c18502327a250ba45332e173d6d58215014f5520b513281ae9e8",
      "transactionIndex": "0xf",
      "blockHash": "0x225ff44105e4b49a5fb2d57d9779c3c66a0ffffc67d1ae9028be0151816b628d",
      "blockNumber": "0x56fb89e",
      "gasUsed": "0x20dae",
      "effectiveGasPrice": "0x989680",
      "from": "0x71b3cc4f406f345c27b150036fe5e5be03fc9e0b",
      "to": "0x6740a60418e175dd4030b2dbf54e3af5ad2c7206",
      "contractAddress": null,
      "gasUsedForL1": "0x31b4",
      "l1BlockNumber": "0xac60ff"
    },
    {
      "status": "0x1",
      "cumulativeGasUsed": "0x7646de",
      "logs": [
        {
          "address": "0x552815ef68e6eb418a3d65d0aa1043d93204f612",
          "topics": [
            "0xdd466e674ea557f56295e2d0218a125ea4b4f0f6f3307b95f85e6110838d6438",
            "0x6c42547ec5bbb5fc1fa04351a2d7bed91c35c5e550a43163e6826364cfd46cee",
            "0x0000000000000000000000000000000000000000000000000000000000000000",
            "0x000000000000000000000000d8ecaee6dc47ce14232f9eb9468009495a3f0e32"
          ],
          "data": "0x0000000000000000000000000000000000000000000000000000000000000bb8000000000000000000000000000000000000000000000000000000000000003c000000000000000000000000cf1bf1cec0d7732ae1bd9bff693c95ca16b000cc00000000000000000000000000000000000000010000000000000000000000000000000000000000000000000000000000000000000000000000000000000000",
          "blockHash": "0x225ff44105e4b49a5fb2d57d9779c3c66a0ffffc67d1ae9028be0151816b628d",
          "blockNumber": "0x56fb89e",
          "blockTimestamp": "0x6a5b1c85",
          "transactionHash": "0xe3a224db92f131908f01398b4a9c33d13b8a85b19621ba0ca44344e0179aeee4",
          "transactionIndex": "0x10",
          "logIndex": "0x7",
          "removed": false
        }
      ],
      "logsBloom": "0x00000000000000000000000000000000000000000000000000000000000000000000000000000000000000000000000000000000000000000000100000000000000000000000010000000000000000000000800000000000000000000000000000000000020000000000000000000800000000000000000000000000000000000000000000000008000000000000000000000001000000000000000000200000000000000000000000000004000000000000000000000000000000000000000000000000000000000400000000000000000000000000000000000000000020000000000000000000000000008080000000000000000000000800000000000008",
      "type": "0x2",
      "transactionHash": "0xe3a224db92f131908f01398b4a9c33d13b8a85b19621ba0ca44344e0179aeee4",
      "transactionIndex": "0x10",
      "blockHash": "0x225ff44105e4b49a5fb2d57d9779c3c66a0ffffc67d1ae9028be0151816b628d",
      "blockNumber": "0x56fb89e",
      "gasUsed": "0xf7f6",
      "effectiveGasPrice": "0x989680",
      "from": "0x71b3cc4f406f345c27b150036fe5e5be03fc9e0b",
      "to": "0x552815ef68e6eb418a3d65d0aa1043d93204f612",
      "contractAddress": null,
      "gasUsedForL1": "0x2edc",
      "l1BlockNumber": "0xac60ff"
    },
    {
      "status": "0x1",
      "cumulativeGasUsed": "0x7719fc",
      "logs": [
        {
          "address": "0xd8ecaee6dc47ce14232f9eb9468009495a3f0e32",
          "topics": [
            "0x8c5be1e5ebec7d5bd14f71427d1e84f3dd0314c0f7b2291e5b200ac8c7c3b925",
            "0x00000000000000000000000071b3cc4f406f345c27b150036fe5e5be03fc9e0b",
            "0x000000000000000000000000a229f2dbc4f4c6fc0350977e21b3346026cca95f"
          ],
          "data": "0xffffffffffffffffffffffffffffffffffffffffffffffffffffffffffffffff",
          "blockHash": "0x225ff44105e4b49a5fb2d57d9779c3c66a0ffffc67d1ae9028be0151816b628d",
          "blockNumber": "0x56fb89e",
          "blockTimestamp": "0x6a5b1c85",
          "transactionHash": "0x8167e6721244d7507e6efc3591496b53449001861a0821d786b4f7be1ab76ada",
          "transactionIndex": "0x11",
          "logIndex": "0x8",
          "removed": false
        }
      ],
      "logsBloom": "0x00000000000000000000000000000000000000000000000100000000000000000000000000000000000000000000000000000000000000000000000000200000000000000000000000000000000000000000000000000000000000000000040000000000000000000000200000000000000000000000000000000000000000000000000000000000000000000000000000004000000004000000000000000000020000000000000000000004000000000000000000004000000000000000000000000000000000000000000000000000000000000000000000000000002000000410000000000000000000000000000000000000000000000000000000000000",
      "type": "0x2",
      "transactionHash": "0x8167e6721244d7507e6efc3591496b53449001861a0821d786b4f7be1ab76ada",
      "transactionIndex": "0x11",
      "blockHash": "0x225ff44105e4b49a5fb2d57d9779c3c66a0ffffc67d1ae9028be0151816b628d",
      "blockNumber": "0x56fb89e",
      "gasUsed": "0xd31e",
      "effectiveGasPrice": "0x989680",
      "from": "0x71b3cc4f406f345c27b150036fe5e5be03fc9e0b",
      "to": "0xd8ecaee6dc47ce14232f9eb9468009495a3f0e32",
      "contractAddress": null,
      "gasUsedForL1": "0x1e75",
      "l1BlockNumber": "0xac60ff"
    },
    {
      "status": "0x1",
      "cumulativeGasUsed": "0x7c0e22",
      "logs": [
        {
          "address": "0x552815ef68e6eb418a3d65d0aa1043d93204f612",
          "topics": [
            "0xf208f4912782fd25c7f114ca3723a2d5dd6f3bcc3ac8db5af63baa85f711d5ec",
            "0x6c42547ec5bbb5fc1fa04351a2d7bed91c35c5e550a43163e6826364cfd46cee",
            "0x000000000000000000000000a229f2dbc4f4c6fc0350977e21b3346026cca95f"
          ],
          "data": "0xfffffffffffffffffffffffffffffffffffffffffffffffffffffffffff2764c00000000000000000000000000000000000000000000000000000000000d89b40000000000000000000000000000000000000000000000000005543df729c0000000000000000000000000000000000000000000000000000000000000000000",
          "blockHash": "0x225ff44105e4b49a5fb2d57d9779c3c66a0ffffc67d1ae9028be0151816b628d",
          "blockNumber": "0x56fb89e",
          "blockTimestamp": "0x6a5b1c85",
          "transactionHash": "0x935abc24111a38c206a44af494e3566e86cf45bede79f8d9f943eaf72ed20fc9",
          "transactionIndex": "0x12",
          "logIndex": "0x9",
          "removed": false
        },
        {
          "address": "0xd8ecaee6dc47ce14232f9eb9468009495a3f0e32",
          "topics": [
            "0xddf252ad1be2c89b69c2b068fc378daa952ba7f163c4a11628f55a4df523b3ef",
            "0x00000000000000000000000071b3cc4f406f345c27b150036fe5e5be03fc9e0b",
            "0x000000000000000000000000552815ef68e6eb418a3d65d0aa1043d93204f612"
          ],
          "data": "0x0000000000000000000000000000000000000000000000000005543df729c000",
          "blockHash": "0x225ff44105e4b49a5fb2d57d9779c3c66a0ffffc67d1ae9028be0151816b628d",
          "blockNumber": "0x56fb89e",
          "blockTimestamp": "0x6a5b1c85",
          "transactionHash": "0x935abc24111a38c206a44af494e3566e86cf45bede79f8d9f943eaf72ed20fc9",
          "transactionIndex": "0x12",
          "logIndex": "0xa",
          "removed": false
        }
      ],
      "logsBloom": "0x02000000000000000000000000000000000000000000000100000000000000000000000000000000000000000000000000000000000000000000100000000000000000000000010000000008000000000000000000000000000000000000040800000000000000000000200000000000000000000000000000000010000000000000000001000000000000000000000000004000000004000000000000000000000004000000000000000004002000000000000000004000000000000000000000000002000000000000000000000000000000000000000000000000002000000400000000000000000000000080000004000000000000000800000000000008",
      "type": "0x2",
      "transactionHash": "0x935abc24111a38c206a44af494e3566e86cf45bede79f8d9f943eaf72ed20fc9",
      "transactionIndex": "0x12",
      "blockHash": "0x225ff44105e4b49a5fb2d57d9779c3c66a0ffffc67d1ae9028be0151816b628d",
      "blockNumber": "0x56fb89e",
      "gasUsed": "0x4f426",
      "effectiveGasPrice": "0x989680",
      "from": "0x71b3cc4f406f345c27b150036fe5e5be03fc9e0b",
      "to": "0xa229f2dbc4f4c6fc0350977e21b3346026cca95f",
      "contractAddress": null,
      "gasUsedForL1": "0x358e",
      "l1BlockNumber": "0xac60ff"
    },
    {
      "status": "0x1",
      "cumulativeGasUsed": "0x7d5621",
      "logs": [
        {
          "address": "0x6740a60418e175dd4030b2dbf54e3af5ad2c7206",
          "topics": [
            "0x3df040f4cd0fb2d5d20e3d3dbbb4eec253882f6c4b3a40b4c78b3f76c774baf7"
          ],
          "data": "0x",
          "blockHash": "0x225ff44105e4b49a5fb2d57d9779c3c66a0ffffc67d1ae9028be0151816b628d",
          "blockNumber": "0x56fb89e",
          "blockTimestamp": "0x6a5b1c85",
          "transactionHash": "0x1ccd947cce963332a8919de7c429f8c5b0bf3d0b318d18c0aaa17bd70d79b9a1",
          "transactionIndex": "0x13",
          "logIndex": "0xb",
          "removed": false
        }
      ],
      "logsBloom": "0x00000200000000000000000000000000100000000000000000000000000000000000000000000000000000000000000000000000000000000000000000000000000000000000000000000000000000000000008000000000000000000000000000000400000000000000000000000000000000000000000000000000004000000000000000000000000000000000000000000000000000000000000000000000000000000000000000000000000000000000000000000000000000000000000000000000000000000000000004000000000000000000000000000000000000000000000000000000000000000000000000000000000000000000000000000000",
      "type": "0x2",
      "transactionHash": "0x1ccd947cce963332a8919de7c429f8c5b0bf3d0b318d18c0aaa17bd70d79b9a1",
      "transactionIndex": "0x13",
      "blockHash": "0x225ff44105e4b49a5fb2d57d9779c3c66a0ffffc67d1ae9028be0151816b628d",
      "blockNumber": "0x56fb89e",
      "gasUsed": "0x147ff",
      "effectiveGasPrice": "0x989680",
      "from": "0x71b3cc4f406f345c27b150036fe5e5be03fc9e0b",
      "to": "0x6740a60418e175dd4030b2dbf54e3af5ad2c7206",
      "contractAddress": null,
      "gasUsedForL1": "0x2c84",
      "l1BlockNumber": "0xac60ff"
    },
    {
      "status": "0x1",
      "cumulativeGasUsed": "0x7e48a9",
      "logs": [
        {
          "address": "0x552815ef68e6eb418a3d65d0aa1043d93204f612",
          "topics": [
            "0xdd466e674ea557f56295e2d0218a125ea4b4f0f6f3307b95f85e6110838d6438",
            "0x7d9e44cbd842139fecf2e42e57bd72500fac989eb1e829107fc8d507e1f831ce",
            "0x0000000000000000000000000000000000000000000000000000000000000000",
            "0x000000000000000000000000119e0a8c499de27a2fc2a341af229802d2548d19"
          ],
          "data": "0x0000000000000000000000000000000000000000000000000000000000000bb8000000000000000000000000000000000000000000000000000000000000003c000000000000000000000000000000000000000000000000000000000000000000000000000000000000000000000000000000010000000000000000000000000000000000000000000000000000000000000000000000000000000000000000",
          "blockHash": "0x225ff44105e4b49a5fb2d57d9779c3c66a0ffffc67d1ae9028be0151816b628d",
          "blockNumber": "0x56fb89e",
          "blockTimestamp": "0x6a5b1c85",
          "transactionHash": "0xed553b38828933f88ff71e6d282938f44428fe0a3d5e2975d40c9dd2ab0f31a4",
          "transactionIndex": "0x14",
          "logIndex": "0xc",
          "removed": false
        }
      ],
      "logsBloom": "0x00000000040000000000000000000000000000000000000000000000000000000000000000000000000000000000000000000000000000000010100000000000000000000000000000000200000000000000000000000000000000000000000000000000020000000000000008000800000000000000000000000000000000000000000000000008080000000000000000000001000000000000000040200000000000000000000000000004000000000000000000000000000000000000000000000000000000000000000000000000000000000000000000000000000020000000000000000000000000000000000000000000000000000000000000000008",
      "type": "0x2",
      "transactionHash": "0xed553b38828933f88ff71e6d282938f44428fe0a3d5e2975d40c9dd2ab0f31a4",
      "transactionIndex": "0x14",
      "blockHash": "0x225ff44105e4b49a5fb2d57d9779c3c66a0ffffc67d1ae9028be0151816b628d",
      "blockNumber": "0x56fb89e",
      "gasUsed": "0xf288",
      "effectiveGasPrice": "0x989680",
      "from": "0x71b3cc4f406f345c27b150036fe5e5be03fc9e0b",
      "to": "0x552815ef68e6eb418a3d65d0aa1043d93204f612",
      "contractAddress": null,
      "gasUsedForL1": "0x2a2c",
      "l1BlockNumber": "0xac60ff"
    },
    {
      "status": "0x1",
      "cumulativeGasUsed": "0x829206",
      "logs": [
        {
          "address": "0x552815ef68e6eb418a3d65d0aa1043d93204f612",
          "topics": [
            "0xf208f4912782fd25c7f114ca3723a2d5dd6f3bcc3ac8db5af63baa85f711d5ec",
            "0x7d9e44cbd842139fecf2e42e57bd72500fac989eb1e829107fc8d507e1f831ce",
            "0x000000000000000000000000a229f2dbc4f4c6fc0350977e21b3346026cca95f"
          ],
          "data": "0xfffffffffffffffffffffffffffffffffffffffffffffffffffffffffff2764c00000000000000000000000000000000000000000000000000000000000d89b40000000000000000000000000000000000000000000000000002d79883d200000000000000000000000000000000000000000000000000000000000000000000",
          "blockHash": "0x225ff44105e4b49a5fb2d57d9779c3c66a0ffffc67d1ae9028be0151816b628d",
          "blockNumber": "0x56fb89e",
          "blockTimestamp": "0x6a5b1c85",
          "transactionHash": "0x3ce4dd77b6352202259542e642f53cdb85a77a36402c9f9e6ec9733beeddc983",
          "transactionIndex": "0x15",
          "logIndex": "0xd",
          "removed": false
        },
        {
          "address": "0x119e0a8c499de27a2fc2a341af229802d2548d19",
          "topics": [
            "0xddf252ad1be2c89b69c2b068fc378daa952ba7f163c4a11628f55a4df523b3ef",
            "0x00000000000000000000000071b3cc4f406f345c27b150036fe5e5be03fc9e0b",
            "0x000000000000000000000000552815ef68e6eb418a3d65d0aa1043d93204f612"
          ],
          "data": "0x0000000000000000000000000000000000000000000000000002d79883d20000",
          "blockHash": "0x225ff44105e4b49a5fb2d57d9779c3c66a0ffffc67d1ae9028be0151816b628d",
          "blockNumber": "0x56fb89e",
          "blockTimestamp": "0x6a5b1c85",
          "transactionHash": "0x3ce4dd77b6352202259542e642f53cdb85a77a36402c9f9e6ec9733beeddc983",
          "transactionIndex": "0x15",
          "logIndex": "0xe",
          "removed": false
        }
      ],
      "logsBloom": "0x02000000000000000000000000000000400000000000000000000000000000000000000000000000000000000000000000000000000000000000100000000000000000000000000000000208000000000000000000000000000000000000040800000000000000000000200008000000000000000000000000000010000000000000000001000002000000000000000000004000000004000000000040000000000004000000000000000004002800000000000000004000000000000000000000000002000000000000000000000000000000000000000000000000002000000000000000000000000000000000000004000000000000000000000000000008",
      "type": "0x2",
      "transactionHash": "0x3ce4dd77b6352202259542e642f53cdb85a77a36402c9f9e6ec9733beeddc983",
      "transactionIndex": "0x15",
      "blockHash": "0x225ff44105e4b49a5fb2d57d9779c3c66a0ffffc67d1ae9028be0151816b628d",
      "blockNumber": "0x56fb89e",
      "gasUsed": "0x4495d",
      "effectiveGasPrice": "0x989680",
      "from": "0x71b3cc4f406f345c27b150036fe5e5be03fc9e0b",
      "to": "0xa229f2dbc4f4c6fc0350977e21b3346026cca95f",
      "contractAddress": null,
      "gasUsedForL1": "0x30de",
      "l1BlockNumber": "0xac60ff"
    },
    {
      "status": "0x1",
      "cumulativeGasUsed": "0x838bcc",
      "logs": [
        {
          "address": "0xd8ecaee6dc47ce14232f9eb9468009495a3f0e32",
          "topics": [
            "0xbc358c1a6bbec2cf1d21c2fb5a564b55d7828e32fb5da64adf3c547926465010",
            "0x000000000000000000000000552815ef68e6eb418a3d65d0aa1043d93204f612"
          ],
          "data": "0x",
          "blockHash": "0x225ff44105e4b49a5fb2d57d9779c3c66a0ffffc67d1ae9028be0151816b628d",
          "blockNumber": "0x56fb89e",
          "blockTimestamp": "0x6a5b1c85",
          "transactionHash": "0x4e0cff30c2a40c27ab347ad91a8067f90a273debb6b5d147bafbc04d3a6e6b36",
          "transactionIndex": "0x16",
          "logIndex": "0xf",
          "removed": false
        }
      ],
      "logsBloom": "0x02000000000000000000000000000000000000000000000100000000000000000000000000000000000000000000000000000000000000000000000000000000000000000000000000000000000000000000000000000000000000000000000800000000000000000000000000400000000000000000000000000000000000000000000000000000000000000000000000000000000000000000000000000000000000001000000000000004002000000000000000000000000000000000000080000000000000000000000000000000000000000000000000000000000000000400000000000000000000000000000000000000000000000000000000000000",
      "type": "0x2",
      "transactionHash": "0x4e0cff30c2a40c27ab347ad91a8067f90a273debb6b5d147bafbc04d3a6e6b36",
      "transactionIndex": "0x16",
      "blockHash": "0x225ff44105e4b49a5fb2d57d9779c3c66a0ffffc67d1ae9028be0151816b628d",
      "blockNumber": "0x56fb89e",
      "gasUsed": "0xf9c6",
      "effectiveGasPrice": "0x989680",
      "from": "0x71b3cc4f406f345c27b150036fe5e5be03fc9e0b",
      "to": "0xd8ecaee6dc47ce14232f9eb9468009495a3f0e32",
      "contractAddress": null,
      "gasUsedForL1": "0x18ef",
      "l1BlockNumber": "0xac60ff"
    },
    {
      "status": "0x1",
      "cumulativeGasUsed": "0x8466c9",
      "logs": [
        {
          "address": "0xd8ecaee6dc47ce14232f9eb9468009495a3f0e32",
          "topics": [
            "0xbc358c1a6bbec2cf1d21c2fb5a564b55d7828e32fb5da64adf3c547926465010",
            "0x000000000000000000000000db71f8831dab638e05986d9c4f064546bf184462"
          ],
          "data": "0x",
          "blockHash": "0x225ff44105e4b49a5fb2d57d9779c3c66a0ffffc67d1ae9028be0151816b628d",
          "blockNumber": "0x56fb89e",
          "blockTimestamp": "0x6a5b1c85",
          "transactionHash": "0xf7926165926251d50b05dc199133fa3233978a3a3f5f144eb5d7b90c2d72b662",
          "transactionIndex": "0x17",
          "logIndex": "0x10",
          "removed": false
        }
      ],
      "logsBloom": "0x00000000000000000000000000000000000000000000000100000000000000000000000000000000000000000000000000000000000000000000000000000000000000000000000000000000000000000000000000000000000000000000000000000000000000000000000000400000000000000000000000000000000000000000000000000000000000000001000000000000000000000000000000000000000000001000000000000004000000000000000000000000000000000000000080000000040000000000000000000000000000000000000000000000000000000400000000000000000000000000000000000008000000000000000000000000",
      "type": "0x2",
      "transactionHash": "0xf7926165926251d50b05dc199133fa3233978a3a3f5f144eb5d7b90c2d72b662",
      "transactionIndex": "0x17",
      "blockHash": "0x225ff44105e4b49a5fb2d57d9779c3c66a0ffffc67d1ae9028be0151816b628d",
      "blockNumber": "0x56fb89e",
      "gasUsed": "0xdafd",
      "effectiveGasPrice": "0x989680",
      "from": "0x71b3cc4f406f345c27b150036fe5e5be03fc9e0b",
      "to": "0xd8ecaee6dc47ce14232f9eb9468009495a3f0e32",
      "contractAddress": null,
      "gasUsedForL1": "0x18ef",
      "l1BlockNumber": "0xac60ff"
    },
    {
      "status": "0x1",
      "cumulativeGasUsed": "0x8541c6",
      "logs": [
        {
          "address": "0xd8ecaee6dc47ce14232f9eb9468009495a3f0e32",
          "topics": [
            "0xbc358c1a6bbec2cf1d21c2fb5a564b55d7828e32fb5da64adf3c547926465010",
            "0x00000000000000000000000036fded5a77c709bc8d36ec9bb81cbc1bc2f140c9"
          ],
          "data": "0x",
          "blockHash": "0x225ff44105e4b49a5fb2d57d9779c3c66a0ffffc67d1ae9028be0151816b628d",
          "blockNumber": "0x56fb89e",
          "blockTimestamp": "0x6a5b1c85",
          "transactionHash": "0xba246522e216ebe359e8214f7eca990d57ffc541ac8e867a7896c118e0d2e192",
          "transactionIndex": "0x18",
          "logIndex": "0x11",
          "removed": false
        }
      ],
      "logsBloom": "0x00000000000000000000000000000000000000000000000100000000000000000000000000000000000000000000000000000000000000000400000000000000000000000000000000000000000000000000000000000000000000002000000000000000000000000000000000400000000000000000000000000000000000000000000000000000000000000000000000000000000000000000000000000000000000001000000000000004000000000000000000000000000000000000000080000000000000000000000000000000000000000000000000400000000000000400000000000000000000000000000000000000000000000000000000000000",
      "type": "0x2",
      "transactionHash": "0xba246522e216ebe359e8214f7eca990d57ffc541ac8e867a7896c118e0d2e192",
      "transactionIndex": "0x18",
      "blockHash": "0x225ff44105e4b49a5fb2d57d9779c3c66a0ffffc67d1ae9028be0151816b628d",
      "blockNumber": "0x56fb89e",
      "gasUsed": "0xdafd",
      "effectiveGasPrice": "0x989680",
      "from": "0x71b3cc4f406f345c27b150036fe5e5be03fc9e0b",
      "to": "0xd8ecaee6dc47ce14232f9eb9468009495a3f0e32",
      "contractAddress": null,
      "gasUsedForL1": "0x18ef",
      "l1BlockNumber": "0xac60ff"
    },
    {
      "status": "0x1",
      "cumulativeGasUsed": "0x861beb",
      "logs": [
        {
          "address": "0xd8ecaee6dc47ce14232f9eb9468009495a3f0e32",
          "topics": [
            "0xbc358c1a6bbec2cf1d21c2fb5a564b55d7828e32fb5da64adf3c547926465010",
            "0x000000000000000000000000000000000000000000000000000000000000dead"
          ],
          "data": "0x",
          "blockHash": "0x225ff44105e4b49a5fb2d57d9779c3c66a0ffffc67d1ae9028be0151816b628d",
          "blockNumber": "0x56fb89e",
          "blockTimestamp": "0x6a5b1c85",
          "transactionHash": "0xc60e7cd2c550e4e5d1f2fde7b1ee2683fca364045f9a924e0594ceae80f14266",
          "transactionIndex": "0x19",
          "logIndex": "0x12",
          "removed": false
        }
      ],
      "logsBloom": "0x00000000000010000000000000000000000000000000000100000000000000000000000000000000000000000000000000000000000000000000000000000000000000000000000000000000000000000000000000000000000000000000000000000000000000000000000000400000000000000000000000000000000000000000000000000000000004000000000000000000000000000000000000000000000000001000000000000004000000000000000000000000000000000000000080000400000000000000000000000000000000000000000000000000000000000400000000000000000000000000000000000000000000000000000000000000",
      "type": "0x2",
      "transactionHash": "0xc60e7cd2c550e4e5d1f2fde7b1ee2683fca364045f9a924e0594ceae80f14266",
      "transactionIndex": "0x19",
      "blockHash": "0x225ff44105e4b49a5fb2d57d9779c3c66a0ffffc67d1ae9028be0151816b628d",
      "blockNumber": "0x56fb89e",
      "gasUsed": "0xda25",
      "effectiveGasPrice": "0x989680",
      "from": "0x71b3cc4f406f345c27b150036fe5e5be03fc9e0b",
      "to": "0xd8ecaee6dc47ce14232f9eb9468009495a3f0e32",
      "contractAddress": null,
      "gasUsedForL1": "0x18ef",
      "l1BlockNumber": "0xac60ff"
    },
    {
      "status": "0x1",
      "cumulativeGasUsed": "0x86f6dc",
      "logs": [
        {
          "address": "0xd8ecaee6dc47ce14232f9eb9468009495a3f0e32",
          "topics": [
            "0xbc358c1a6bbec2cf1d21c2fb5a564b55d7828e32fb5da64adf3c547926465010",
            "0x000000000000000000000000e4e7d677e23544e12a0100b29e146b9164c831a2"
          ],
          "data": "0x",
          "blockHash": "0x225ff44105e4b49a5fb2d57d9779c3c66a0ffffc67d1ae9028be0151816b628d",
          "blockNumber": "0x56fb89e",
          "blockTimestamp": "0x6a5b1c85",
          "transactionHash": "0xbca98151d65c12bae11bc2d120089f0c50360af76f6772d73b70c270c25fd4bf",
          "transactionIndex": "0x1a",
          "logIndex": "0x13",
          "removed": false
        }
      ],
      "logsBloom": "0x00000000000000000000000000000000000000000000000100000000000000000000000000800000000000000000000000000000000000000800000000000000000000000000000000000000000000000000000000000000000000000000000000000000000000000000000000400000000000000000000000000000000000000000000000000000000000000000000000000000000000000000000000000000000000001000000000000004000001000000000000000000000000000000000080000000000000000000000000000000000000000000000000000000000000000400000000000000000000000000000000000000000000000000000000000000",
      "type": "0x2",
      "transactionHash": "0xbca98151d65c12bae11bc2d120089f0c50360af76f6772d73b70c270c25fd4bf",
      "transactionIndex": "0x1a",
      "blockHash": "0x225ff44105e4b49a5fb2d57d9779c3c66a0ffffc67d1ae9028be0151816b628d",
      "blockNumber": "0x56fb89e",
      "gasUsed": "0xdaf1",
      "effectiveGasPrice": "0x989680",
      "from": "0x71b3cc4f406f345c27b150036fe5e5be03fc9e0b",
      "to": "0xd8ecaee6dc47ce14232f9eb9468009495a3f0e32",
      "contractAddress": null,
      "gasUsedForL1": "0x18ef",
      "l1BlockNumber": "0xac60ff"
    }
  ],
  "libraries": [],
  "pending": [],
  "returns": {},
  "timestamp": 1784355975997,
  "chain": 46630,
  "commit": null
}