{
  "transactions": [
    {
      "hash": "0xdaa50837d69e433f19c674169d4e8e73bcceffc8aab657a7f0c238bc20fa8f65",
      "transactionType": "CREATE",
      "contractName": "VestingLocker",
      "contractAddress": "0xa4281774ce1836ec24993d81dde429d15f30b6fe",
      "function": null,
      "arguments": [
        "0x18fA6c4f8000bA5910B132825aB4De4819209F1c",
        "0x008baC045a4220Bf6755564C5eA2e1B271EB670F",
        "1784419284",
        "7776000",
        "31536000"
      ],
      "transaction": {
        "from": "0x3d01c7344ae6b1ef7a512922a295a9457d0eba91",
        "gas": "0x79194",
        "value": "0x0",
        "input": "0x6101203461017d57601f6107ae38819003918201601f19168301916001600160401b038311848410176101815780849260a09460405283398101031261017d578051906001600160a01b0382169081830361017d576020810151926001600160a01b0384169182850361017d5761007860408201610195565b92610091608061008a60608501610195565b9301610195565b9415908115610174575b50610165576001600160401b0384168015908115610152575b50610143576100d9946100d19260805260a0528260c052826101a9565b60e0526101a9565b610100526040516105d790816101d782396080518181816091015281816102e901526104c9015260a0518181816101b7015261048e015260c05181818161014801526103a7015260e0518181816102050152610342015261010051818181610105015261036a0152f35b636c345c1d60e11b5f5260045ffd5b6001600160401b0383161190505f6100b4565b63d92e233d60e01b5f5260045ffd5b9050155f61009b565b5f80fd5b634e487b7160e01b5f52604160045260245ffd5b51906001600160401b038216820361017d57565b6001600160401b0391821690821601919082116101c257565b634e487b7160e01b5f52601160045260245ffdfe60806040526004361015610011575f80fd5b5f3560e01c80630a17b06b1461022957806313d033c0146101e657806338af3eed146101a257806386d1a69f14610188578063961325211461016c578063be9a655514610129578063efbe1c1c146100e6578063fbccedae146100c45763fc0c546a1461007c575f80fd5b346100c0575f3660031901126100c0576040517f00000000000000000000000000000000000000000000000000000000000000006001600160a01b03168152602090f35b5f80fd5b346100c0575f3660031901126100c05760206100de610581565b604051908152f35b346100c0575f3660031901126100c05760206040516001600160401b037f0000000000000000000000000000000000000000000000000000000000000000168152f35b346100c0575f3660031901126100c05760206040516001600160401b037f0000000000000000000000000000000000000000000000000000000000000000168152f35b346100c0575f3660031901126100c05760205f54604051908152f35b346100c0575f3660031901126100c05760206100de61045c565b346100c0575f3660031901126100c0576040517f00000000000000000000000000000000000000000000000000000000000000006001600160a01b03168152602090f35b346100c0575f3660031901126100c05760206040516001600160401b037f0000000000000000000000000000000000000000000000000000000000000000168152f35b346100c05760203660031901126100c0576004356001600160401b03811681036100c0576100de6020916102ce565b90601f801991011681019081106001600160401b0382111761027957604052565b634e487b7160e01b5f52604160045260245ffd5b9190820180921161029a57565b634e487b7160e01b5f52601160045260245ffd5b906001600160401b03809116911603906001600160401b03821161029a57565b6040516370a0823160e01b81523060048201526020816024817f00000000000000000000000000000000000000000000000000000000000000006001600160a01b03165afa8015610451575f9061041d575b61032d91505f549061028d565b906001600160401b0381166001600160401b037f0000000000000000000000000000000000000000000000000000000000000000168110610416577f0000000000000000000000000000000000000000000000000000000000000000906001600160401b0382161115610411576001600160401b036103cd7f000000000000000000000000000000000000000000000000000000000000000080946102ae565b169283810293818504149015171561029a576001600160401b03916103f1916102ae565b169081156103fd570490565b634e487b7160e01b5f52601260045260245ffd5b505090565b5050505f90565b506020813d602011610449575b8161043760209383610258565b810103126100c05761032d9051610320565b3d915061042a565b6040513d5f823e3d90fd5b610464610581565b90811561057c57610476825f5461028d565b5f5560405163a9059cbb60e01b815260018060a01b037f00000000000000000000000000000000000000000000000000000000000000001660048201528260248201526020816044815f60018060a01b037f0000000000000000000000000000000000000000000000000000000000000000165af1908115610451575f91610541575b5015610532577fd5840651550c173a8bf246eede440a59253bc61eadb2e8887168faad2fad631d60405f548151908582526020820152a1565b6312171d8360e31b5f5260045ffd5b90506020813d602011610574575b8161055c60209383610258565b810103126100c0575180151581036100c0575f6104f9565b3d915061054f565b5f9150565b6105936001600160401b0342166102ce565b5f54810390811161029a579056fea26469706673582212207a0469cabbaa333c898b0eaeb557d8ea2357a83b91f73859eb810327e782c4f464736f6c634300081a003300000000000000000000000018fa6c4f8000ba5910b132825ab4de4819209f1c000000000000000000000000008bac045a4220bf6755564c5ea2e1b271eb670f000000000000000000000000000000000000000000000000000000006a5c13d4000000000000000000000000000000000000000000000000000000000076a7000000000000000000000000000000000000000000000000000000000001e13380",
        "nonce": "0x25",
        "chainId": "0x1237"
      },
      "additionalContracts": [],
      "isFixedGasLimit": false
    },
    {
      "hash": "0xdf8ffb13d45ef2b250d42595cbaa33cc1faffdf29c7eae05a3b281d13d17780f",
      "transactionType": "CALL",
      "contractName": null,
      "contractAddress": "0x18fa6c4f8000ba5910b132825ab4de4819209f1c",
      "function": "excludeFromDividends(address)",
      "arguments": [
        "0xA4281774Ce1836eC24993D81DDE429d15f30B6FE"
      ],
      "transaction": {
        "from": "0x3d01c7344ae6b1ef7a512922a295a9457d0eba91",
        "to": "0x18fa6c4f8000ba5910b132825ab4de4819209f1c",
        "gas": "0x10c08",
        "value": "0x0",
        "input": "0x31e79db0000000000000000000000000a4281774ce1836ec24993d81dde429d15f30b6fe",
        "nonce": "0x26",
        "chainId": "0x1237"
      },
      "additionalContracts": [],
      "isFixedGasLimit": false
    },
    {
      "hash": "0x11f8bfe83a41050031ef2e809cc2465bacb3c2cb05a73a0e57bb25386ae1b247",
      "transactionType": "CALL",
      "contractName": null,
      "contractAddress": "0x18fa6c4f8000ba5910b132825ab4de4819209f1c",
      "function": "transfer(address,uint256)",
      "arguments": [
        "0xA4281774Ce1836eC24993D81DDE429d15f30B6FE",
        "100000000000000000000000000"
      ],
      "transaction": {
        "from": "0x3d01c7344ae6b1ef7a512922a295a9457d0eba91",
        "to": "0x18fa6c4f8000ba5910b132825ab4de4819209f1c",
        "gas": "0x1a261",
        "value": "0x0",
        "input": "0xa9059cbb000000000000000000000000a4281774ce1836ec24993d81dde429d15f30b6fe00000000000000000000000000000000000000000052b7d2dcc80cd2e4000000",
        "nonce": "0x27",
        "chainId": "0x1237"
      },
      "additionalContracts": [],
      "isFixedGasLimit": false
    },
    {
      "hash": "0x78366130299c2b92b2cf8786dc337f1c288271af0e4952da20021bc73da63527",
      "transactionType": "CALL",
      "contractName": null,
      "contractAddress": "0x18fa6c4f8000ba5910b132825ab4de4819209f1c",
      "function": "approve(address,uint256)",
      "arguments": [
        "0x3d01C7344AE6B1EF7a512922a295a9457d0eBA91",
        "349999998999999999999999999"
      ],
      "transaction": {
        "from": "0x3d01c7344ae6b1ef7a512922a295a9457d0eba91",
        "to": "0x18fa6c4f8000ba5910b132825ab4de4819209f1c",
        "gas": "0x106d8",
        "value": "0x0",
        "input": "0x095ea7b30000000000000000000000003d01c7344ae6b1ef7a512922a295a9457d0eba91000000000000000000000000000000000000000001218361f6db762e769bffff",
        "nonce": "0x28",
        "chainId": "0x1237"
      },
      "additionalContracts": [],
      "isFixedGasLimit": false
    },
    {
      "hash": "0x224a59fabc1b394003cc50d88fec3ae221029e116cc2286cb0d47befa6ba6a5f",
      "transactionType": "CALL",
      "contractName": null,
      "contractAddress": "0x18fa6c4f8000ba5910b132825ab4de4819209f1c",
      "function": "burnFrom(address,uint256)",
      "arguments": [
        "0x3d01C7344AE6B1EF7a512922a295a9457d0eBA91",
        "349999998999999999999999999"
      ],
      "transaction": {
        "from": "0x3d01c7344ae6b1ef7a512922a295a9457d0eba91",
        "to": "0x18fa6c4f8000ba5910b132825ab4de4819209f1c",
        "gas": "0x1041c",
        "value": "0x0",
        "input": "0x79cc67900000000000000000000000003d01c7344ae6b1ef7a512922a295a9457d0eba91000000000000000000000000000000000000000001218361f6db762e769bffff",
        "nonce": "0x29",
        "chainId": "0x1237"
      },
      "additionalContracts": [],
      "isFixedGasLimit": false
    }
  ],
  "receipts": [
    {
      "status": "0x1",
      "cumulativeGasUsed": "0xfd60f",
      "logs": [],
      "logsBloom": "0x00000000000000000000000000000000000000000000000000000000000000000000000000000000000000000000000000000000000000000000000000000000000000000000000000000000000000000000000000000000000000000000000000000000000000000000000000000000000000000000000000000000000000000000000000000000000000000000000000000000000000000000000000000000000000000000000000000000000000000000000000000000000000000000000000000000000000000000000000000000000000000000000000000000000000000000000000000000000000000000000000000000000000000000000000000000",
      "type": "0x2",
      "transactionHash": "0x11f8bfe83a41050031ef2e809cc2465bacb3c2cb05a73a0e57bb25386ae1b247",
      "transactionIndex": "0x11",
      "blockHash": "0x29f2da87746180e146919df60cdcec878e4962092371af02c2895d1940827785",
      "blockNumber": "0xcc62c1",
      "gasUsed": "0x5d272",
      "effectiveGasPrice": "0x3d10d00",
      "from": "0x3d01c7344ae6b1ef7a512922a295a9457d0eba91",
      "to": null,
      "contractAddress": "0xa4281774ce1836ec24993d81dde429d15f30b6fe",
      "gasUsedForL1": "0x0",
      "l1BlockNumber": "0x1860f9d"
    },
    {
      "status": "0x1",
      "cumulativeGasUsed": "0x10981d",
      "logs": [
        {
          "address": "0x18fa6c4f8000ba5910b132825ab4de4819209f1c",
          "topics": [
            "0xbc358c1a6bbec2cf1d21c2fb5a564b55d7828e32fb5da64adf3c547926465010",
            "0x000000000000000000000000a4281774ce1836ec24993d81dde429d15f30b6fe"
          ],
          "data": "0x",
          "blockHash": "0x29f2da87746180e146919df60cdcec878e4962092371af02c2895d1940827785",
          "blockNumber": "0xcc62c1",
          "blockTimestamp": "0x6a5c13d7",
          "transactionHash": "0xdaa50837d69e433f19c674169d4e8e73bcceffc8aab657a7f0c238bc20fa8f65",
          "transactionIndex": "0x12",
          "logIndex": "0x13",
          "removed": false
        }
      ],
      "logsBloom": "0x00000000000000000400000000000000000000000000000000000000000000000000000000000000000000000000000000000000000000000000000000000000000000000000000000000000000000000000000000000000000000000000000000000000000000000000000000400000000000000000000000000000000000000001000000000000000008000000000000000000800000000000000000000000000000001000000000000000000000000000000000000000000000000000000080000002000000000000000000000000000000000000040000000000000000000000000000000000000000000000000000000000000000000000000000000000",
      "type": "0x2",
      "transactionHash": "0xdaa50837d69e433f19c674169d4e8e73bcceffc8aab657a7f0c238bc20fa8f65",
      "transactionIndex": "0x12",
      "blockHash": "0x29f2da87746180e146919df60cdcec878e4962092371af02c2895d1940827785",
      "blockNumber": "0xcc62c1",
      "gasUsed": "0xc20e",
      "effectiveGasPrice": "0x3d10d00",
      "from": "0x3d01c7344ae6b1ef7a512922a295a9457d0eba91",
      "to": "0x18fa6c4f8000ba5910b132825ab4de4819209f1c",
      "contractAddress": null,
      "gasUsedForL1": "0x0",
      "l1BlockNumber": "0x1860f9d"
    },
    {
      "status": "0x1",
      "cumulativeGasUsed": "0x11b630",
      "logs": [
        {
          "address": "0x18fa6c4f8000ba5910b132825ab4de4819209f1c",
          "topics": [
            "0xddf252ad1be2c89b69c2b068fc378daa952ba7f163c4a11628f55a4df523b3ef",
            "0x0000000000000000000000003d01c7344ae6b1ef7a512922a295a9457d0eba91",
            "0x000000000000000000000000a4281774ce1836ec24993d81dde429d15f30b6fe"
          ],
          "data": "0x00000000000000000000000000000000000000000052b7d2dcc80cd2e4000000",
          "blockHash": "0x29f2da87746180e146919df60cdcec878e4962092371af02c2895d1940827785",
          "blockNumber": "0xcc62c1",
          "blockTimestamp": "0x6a5c13d7",
          "transactionHash": "0x78366130299c2b92b2cf8786dc337f1c288271af0e4952da20021bc73da63527",
          "transactionIndex": "0x13",
          "logIndex": "0x14",
          "removed": false
        }
      ],
      "logsBloom": "0x00000000000000000400000000000000000000000000000000000000000000000000000000000000000000000000000000000000000000000000000000000000000000000000000000000008000000000000000000000000000000000000000200000000000008000000000000000000000000000000000000000010000000000001000000000000000008000000000000000000800000000000000000000000000000000000000000000000000000000000000000000000000000000000000000000002000000000000000000000000000000000000040000000000000000000200000000000000000000000000000000000000000000000000000000000000",
      "type": "0x2",
      "transactionHash": "0x78366130299c2b92b2cf8786dc337f1c288271af0e4952da20021bc73da63527",
      "transactionIndex": "0x13",
      "blockHash": "0x29f2da87746180e146919df60cdcec878e4962092371af02c2895d1940827785",
      "blockNumber": "0xcc62c1",
      "gasUsed": "0x11e13",
      "effectiveGasPrice": "0x3d10d00",
      "from": "0x3d01c7344ae6b1ef7a512922a295a9457d0eba91",
      "to": "0x18fa6c4f8000ba5910b132825ab4de4819209f1c",
      "contractAddress": null,
      "gasUsedForL1": "0x0",
      "l1BlockNumber": "0x1860f9d"
    },
    {
      "status": "0x1",
      "cumulativeGasUsed": "0x1269e9",
      "logs": [
        {
          "address": "0x18fa6c4f8000ba5910b132825ab4de4819209f1c",
          "topics": [
            "0x8c5be1e5ebec7d5bd14f71427d1e84f3dd0314c0f7b2291e5b200ac8c7c3b925",
            "0x0000000000000000000000003d01c7344ae6b1ef7a512922a295a9457d0eba91",
            "0x0000000000000000000000003d01c7344ae6b1ef7a512922a295a9457d0eba91"
          ],
          "data": "0x000000000000000000000000000000000000000001218361f6db762e769bffff",
          "blockHash": "0x29f2da87746180e146919df60cdcec878e4962092371af02c2895d1940827785",
          "blockNumber": "0xcc62c1",
          "blockTimestamp": "0x6a5c13d7",
          "transactionHash": "0x224a59fabc1b394003cc50d88fec3ae221029e116cc2286cb0d47befa6ba6a5f",
          "transactionIndex": "0x14",
          "logIndex": "0x15",
          "removed": false
        }
      ],
      "logsBloom": "0x00000000000000000000000000000000000000000000000000000000000000000000000000000000000000000000000000000000000000000000000000200000000000000000000000000000000000000000000000000000000000000000000200000000000008000000000000000000000000000000000000000000000000000001000000000000000008000000000000000000000000000000000000000000020000000000000000000000000000000000000000000000000000000000000000000002000000000000000000000000000000000000000000000000000000000210000000000000000000000000000000000000000000000000000000000000",
      "type": "0x2",
      "transactionHash": "0x224a59fabc1b394003cc50d88fec3ae221029e116cc2286cb0d47befa6ba6a5f",
      "transactionIndex": "0x14",
      "blockHash": "0x29f2da87746180e146919df60cdcec878e4962092371af02c2895d1940827785",
      "blockNumber": "0xcc62c1",
      "gasUsed": "0xb3b9",
      "effectiveGasPrice": "0x3d10d00",
      "from": "0x3d01c7344ae6b1ef7a512922a295a9457d0eba91",
      "to": "0x18fa6c4f8000ba5910b132825ab4de4819209f1c",
      "contractAddress": null,
      "gasUsedForL1": "0x0",
      "l1BlockNumber": "0x1860f9d"
    },
    {
      "status": "0x1",
      "cumulativeGasUsed": "0x131bc4",
      "logs": [
        {
          "address": "0x18fa6c4f8000ba5910b132825ab4de4819209f1c",
          "topics": [
            "0xddf252ad1be2c89b69c2b068fc378daa952ba7f163c4a11628f55a4df523b3ef",
            "0x0000000000000000000000003d01c7344ae6b1ef7a512922a295a9457d0eba91",
            "0x0000000000000000000000000000000000000000000000000000000000000000"
          ],
          "data": "0x000000000000000000000000000000000000000001218361f6db762e769bffff",
          "blockHash": "0x29f2da87746180e146919df60cdcec878e4962092371af02c2895d1940827785",
          "blockNumber": "0xcc62c1",
          "blockTimestamp": "0x6a5c13d7",
          "transactionHash": "0xdf8ffb13d45ef2b250d42595cbaa33cc1faffdf29c7eae05a3b281d13d17780f",
          "transactionIndex": "0x15",
          "logIndex": "0x16",
          "removed": false
        }
      ],
      "logsBloom": "0x00000000000000000000000000000000000000000000000000000000000000000000000000000000000000000000000000000000000000000000000000000000000000000000000000000008000000000000000000000000000000000000000200000000020008000000000000000800000000000000000000000010000000000001000000000000000008000000000000000000000000000000000000000000000000000000000000000000000000000000000000000000000000000000000000000002000000000000000000000000000000000000000000000000000020000200000000000000000000000000000000000000000000000000000000000000",
      "type": "0x2",
      "transactionHash": "0xdf8ffb13d45ef2b250d42595cbaa33cc1faffdf29c7eae05a3b281d13d17780f",
      "transactionIndex": "0x15",
      "blockHash": "0x29f2da87746180e146919df60cdcec878e4962092371af02c2895d1940827785",
      "blockNumber": "0xcc62c1",
      "gasUsed": "0xb1db",
      "effectiveGasPrice": "0x3d10d00",
      "from": "0x3d01c7344ae6b1ef7a512922a295a9457d0eba91",
      "to": "0x18fa6c4f8000ba5910b132825ab4de4819209f1c",
      "contractAddress": null,
      "gasUsedForL1": "0x0",
      "l1BlockNumber": "0x1860f9d"
    }
  ],
  "libraries": [],
  "pending": [],
  "returns": {},
  "timestamp": 1784419288400,
  "chain": 4663,
  "commit": null
}